:020000040000fa
:04005400c4010000e3
:020000040000fa
:04001000c401000027
:020000040000fa
:04015400c4010000e2
:020000040000fa
:04011000c401000026
:020000040000fa
:04019400c4010000a2
:020000040000fa
:0401c000c401000076
:020000040000fa
:04016400c4010000d2
:020000040000fa
:0401cc00c40100006a
:020000040000fa
:0401d400c401000062
:020000040000fa
:0401d800c40100005e
:020000040000fa
:04012c00c40100000a
:020000040000fa
:04013800c4010000fe
:020000040000fa
:04019800c40100009e
:020000040000fa
:04019c00c40100009a
:020000040000fa
:0401a000c401000096
:020000040000fa
:0401a400c401000092
:020000040000fa
:04016c00c4010000ca
:020000040000fa
:04017000c4010000c6
:020000040000fa
:04012800c40100000e
:020000040000fa
:04016800c4010000ce
:020000040000fa
:04018400c4010000b2
:020000040000fa
:0401b800c40100007e
:020000040000fa
:0401bc00c40100007a
:020000040000fa
:0401d000c401000066
:020000040000fa
:04016000c4010000d6
:020000040000fa
:04011800c40100001e
:020000040000fa
:04015800c4010000de
:020000040000fa
:04013000c401000006
:020000040000fa
:04013c00c4010000fa
:020000040000fa
:04017400c4010000c2
:020000040000fa
:04017800c4010000be
:020000040000fa
:0401a800c40100008e
:020000040000fa
:0401ac00c40100008a
:020000040000fa
:0401b000c401000086
:020000040000fa
:0401b400c401000082
:020000040000fa
:04010c00c40100002a
:020000040000fa
:0401c400c401000072
:020000040000fa
:0401c800c40100006e
:020000040000fa
:04010800c40100002e
:020000040000fa
:04011c00c40100001a
:020000040000fa
:04012000c401000016
:020000040000fa
:04012400c401000012
:020000040000fa
:04015c00c4010000da
:020000040000fa
:04014800c4010000ee
:020000040000fa
:04019000c4010000a6
:020000040000fa
:04011400c401000022
:020000040000fa
:04013400c401000002
:020000040000fa
:04014000c4010000f6
:020000040000fa
:04014400c4010000f2
:020000040000fa
:04017c00c4010000ba
:020000040000fa
:04018000c4010000b6
:020000040000fa
:04014c00c4010000ea
:020000040000fa
:04015000c4010000e6
:020000040000fa
:04018800c4010000ae
:020000040000fa
:04018c00c4010000aa
:020000040000fa
:04009400c4010000a3
:020000040000fa
:0400c000c401000077
:020000040000fa
:04006400c4010000d3
:020000040000fa
:0400cc00c40100006b
:020000040000fa
:0400d400c401000063
:020000040000fa
:0400d800c40100005f
:020000040000fa
:04002c00c40100000b
:020000040000fa
:04003800c4010000ff
:020000040000fa
:04009800c40100009f
:020000040000fa
:04009c00c40100009b
:020000040000fa
:0400a000c401000097
:020000040000fa
:0400a400c401000093
:020000040000fa
:04006c00c4010000cb
:020000040000fa
:04007000c4010000c7
:020000040000fa
:04002800c40100000f
:020000040000fa
:04006800c4010000cf
:020000040000fa
:04008400c4010000b3
:020000040000fa
:0400b800c40100007f
:020000040000fa
:0400bc00c40100007b
:020000040000fa
:0400d000c401000067
:020000040000fa
:04006000c4010000d7
:020000040000fa
:04001800c40100001f
:020000040000fa
:04005800c4010000df
:020000040000fa
:04003000c401000007
:020000040000fa
:04003c00c4010000fb
:020000040000fa
:04007400c4010000c3
:020000040000fa
:04007800c4010000bf
:020000040000fa
:0400a800c40100008f
:020000040000fa
:0400ac00c40100008b
:020000040000fa
:0400b000c401000087
:020000040000fa
:0400b400c401000083
:020000040000fa
:04000c00c40100002b
:020000040000fa
:0400c400c401000073
:020000040000fa
:0400c800c40100006f
:020000040000fa
:04000800c40100002f
:020000040000fa
:04001c00c40100001b
:020000040000fa
:04002000c401000017
:020000040000fa
:04002400c401000013
:020000040000fa
:04005c00c4010000db
:020000040000fa
:04004800c4010000ef
:020000040000fa
:04009000c4010000a7
:020000040000fa
:04001400c401000023
:020000040000fa
:04008000c4010000b7
:020000040000fa
:04004c00c4010000eb
:020000040000fa
:04005000c4010000e7
:020000040000fa
:04008800c4010000af
:020000040000fa
:04008c00c4010000ab
:020000040000fa
:080000000001040000000000f3
:020000040000fa
:100200008fe920000eff20000e0188000000000092
:10021000000020000000e000020032000001200089
:10022000200288000c00070040eb220001002000a3
:100230001f000700000020000000e0000200320064
:1002400000000200000000005c2c02000000000022
:100250000040da000000fe004440a90020482000d1
:100260000000e0000300320000002000a001880030
:100270004440a80000000600f03fb1000180b1003a
:1002800006003500ee03090000000000403fb10009
:100290000180b100fbff3d001000b000203fb00026
:1002a0000200350000800900000000000000060088
:1002b00091018800800078000000eb0015003700f5
:1002c000e280400032a0b4009101ba00e280400018
:1002d00032a0b4009102ba00e280400032a0b40023
:1002e0000002eb00472bde00f507b200602ce100b6
:1002f00004003a000059eb008301e900fdff3e00d5
:10030000040037006128e100010032000082eb00a8
:100310000b00070011c3ba001101ba000604e00087
:1003200003003a000200e000e5ff3a00000006008a
:10033000f607b2009601880082007800f5ff3700ca
:100340003159ba008301e9000c0032002159ba008a
:100350008301e900080032000400e00003003a00d5
:10036000e280400032a0b400f5ff370011d9ba0096
:100370008301e900faff3a008100e800e1804000d3
:1003800032a0b400000006000040da000000fe00c9
:100390006022b800060220000000d0008180d20058
:1003a0000482d2008582d2000000a0000202520026
:1003b00083825a00030031000202420083824a0015
:1003c0000000a1000603e900f3ff3a000000060068
:1003d0002800fa00889fbe008a9fbe008c9fbe0046
:1003e00003866b00070207000028a30064003a00a0
:1003f0000128a30067003a000008a30062003a0049
:100400000108a30065003a001e009000be0890009d
:1004100081064000ed3fb100f4805700ee019000ee
:10042000111ab8008e099000311bb8009e09900087
:10043000311cb800511db800f48557004600070074
:10044000fe0190003a0007008b85e8003e0007009f
:100450008e09900040000700ee0190003400070074
:100460008b85e800380007008e09900040000700e7
:100470009e0990001b18b800890440000a854800b6
:10048000fe019000340007008b85e800380007006b
:10049000ee019000300007008e0990001b18b80094
:1004a000890440000a8548000a98a30008003a0021
:1004b0000402420085824a0006034b0087834b00fa
:1004c00008044c0089844c000a054d008d06e900a3
:1004d00084827200850273004c3add00850272004e
:1004e0000100320015002000443ade001400b20082
:1004f0004538de00cb45dd000b007000c540de0056
:10050000cb4ddd008b8070004549de00cb55dd0012
:100510000b017100c551de000d037800d201070008
:1005200003f0a1000cf0a70003f0a000c901370000
:100530001b18b8008502400006834800e0834b008a
:1005400060044c00070037001b18b8000603400089
:1005500087834800faff37001b18b8008703400064
:1005600008844800e0844c0060054d00000006004f
:100570001b18b8000804400089844800faff3700bf
:100580000108a300b0013a005800be005801be00a7
:10059000e3ff37000008a300ab013a00090478002c
:1005a000f9ff37008f1fd100db0107008f87e900bb
:1005b0000000e000000006002800fa00889fbe004e
:1005c0008a9fbe008c9fbe00070678008786690060
:1005d0000c003b00030478008704780008f0a100b9
:1005e00009f0a100840f5000858f5800860f590034
:1005f000890f5c00030033000cf0a20001003a00f8
:100600000cf0a1007f0107006400e1005f003200f0
:10061000780147006408e100610032006c01470086
:10062000748557003200be001201be003a04be00bd
:100630001a05be001e039000be0a900085035300f9
:1006400006003d000004fd008104fd000205fd00e0
:100650008305fd008703ea00050378000df8a30079
:100660000400320060041400e0841c0060051d00da
:10067000e0851d006022b8007d0320000d38e100f8
:100680008006eb000b0039004433dd00f300b200bc
:100690008301730039003700848272000d027800f4
:1006a000e10664008b85d1000a85d3008984d300dc
:1006b0000884d3008703e900f7ff3b0008004000ef
:1006c000898048000a0149008b81490004003b00f1
:1006d00060001000e080180060011900e08119003e
:1006e0000358a300090032008d82720084827200d8
:1006f000610260008301d1000281d3008180d300b8
:100700000080d3000603e8001b0037000348a30065
:1007100017003a000600e000170034000603e90065
:100720000d00a3000000480081804800020149003c
:10073000838149000348a3000f003a000600e0004f
:10074000090034000603e9000000400081804800f1
:10075000020149008381490001003a000003eb00d7
:100760000348a300f5ff32006022b8000200370002
:1007700084827200618266003b01070003f0a100e1
:100780000cf0a70003f0a00032013700640147001d
:100790006408e10002003a000df8a3002a013a00c3
:1007a0003200be001201be002a0137000002eb0039
:1007b000820107000500320007ff23000600200029
:1007c0006022b80003f0a7002d000700000006001b
:1007d0001400fa00889fbe008a9fbe008c9fbe0056
:1007e0000004be000205be00680047000a90be007b
:1007f0000890be00b50107000070a7000bf0a10033
:10080000304320009e02900080825200b0fe2f00f4
:100810000028e10011003d00b0fc2f000028e1009d
:10082000150034001e0990008e0890007e00900094
:100830000501b0000201d1008180d3000080d30007
:100840008502e800fbff3a000b00e00001013b00dd
:1008500060001000e0801800fe003700f0ff2f005d
:10086000f1ff27000b00e000fa003b000100280028
:1008700000002000f70037006000b800f5003700e6
:1008800007f0a2004cff37004f89de00820178009c
:10089000b50137006011b800c3013700810378004b
:1008a000f00107000001be006000b8000478a3005a
:1008b00013003a006220e10015003e000d003900ef
:1008c0008301d1000281d3008180d3008301d10054
:1008d0000281d3008180d3008301d1000281d30043
:1008e0008180d3000538b000c42add00f300b200d7
:1008f0008381720007f0a70003f0a000000006004b
:10090000f3ff2700f2ff2f006110b900fbff370053
:1009100003ff2700f7ff37002800fa00889fbe007a
:100920008a9fbe008c9fbe0003866b00b500070047
:100930006400e100440032006408e1004a00320033
:100940006100e100460032006108e1004900320028
:10095000ec0647006000b8003d02be003d03be004b
:10096000f48657006011b8003d04be003d05be008e
:100970007d0320000b0037000000a0008d06e90079
:10098000130032000402420085824a0006034b0035
:1009900087834b000000400081804800020149002d
:1009a000838149000802520089825a000a035b00d1
:1009b0008b835b00f0ff3b000802420089824a0003
:1009c0000a034b008b834b008d06e900edff3a00d4
:1009d0008482720086827200f707b20087827200fa
:1009e00001003200150020001e0490003e0b900014
:1009f00006035400e63fb0000368a300070032007e
:100a00000000a7000500a0008301d1000281d300ef
:100a10008180d3000080d3000603e8008301d10069
:100a20000281d3008180d3000080d3000002eb005c
:100a30000482d2008c00070003f0a1000cf0a70094
:100a400003f0a00083003700640247006408e1005f
:100a50007d0032003400be003401be00f6ff3700d6
:100a60006108e100780032006011b8006000b80051
:100a7000f1ff370003ff270002002000fbff3700d3
:100a8000140020008c0137001400fa00889fbe007b
:100a90008a9fbe008c9fbe000004be000205be00ff
:100aa000680047000a90be000890be0007010700da
:100ab0000078a3003d003a006100e1003c003200f4
:100ac0000bf8a3003d003a006400e100380032005a
:100ad0006c0347001e009000f03fb1003602be00dc
:100ae0001603be000008a300040032000402420006
:100af00085824a0006034b0087834b00100798004d
:100b00008e1f78006000b8006011b8005c00200003
:100b10006d0120006e002000020037008d86e90084
:100b2000fc0020000402420085824a0006034b00bc
:100b300087834b000004400081844800020549007f
:100b4000838549006060e1001d60ad00080452002b
:100b500089845a000a055b008b855b00030039001d
:100b60001e60ad000802be000a03be000c06e900cc
:100b7000ecff3b000e87e900e8ff3b004f077800e1
:100b800061026000840278008301d1000281d300f9
:100b90008180d3000080d3001e03900041b3de00ab
:100ba000f63fb000300007002a0037000b30a000ed
:100bb0000800be000a01be00260037001202200015
:100bc000b274880020003700839f68000100e000b5
:100bd00002003d0060001000e08018000300e0000b
:100be00002003d0060011100e0811900e8fd0700ee
:100bf0004f00e00002003b0060001000e0801800a1
:100c000000000600680447000294be000094be0085
:100c1000fc0447008694be008494be00090078005e
:100c2000aa00070008007800a800070099007800d3
:100c3000814f70000b003b000800be00cb01070095
:100c40004f00b10003003700f3ff2700f2ff2f0031
:100c50006110b9004f06be004f05be004f04be0034
:100c60000080fa0000000600180020005700200055
:100c7000080453000d003d000600200097fc2f00e3
:100c80000740e1001e0034008482720061026000af
:100c90008301d1000281d3008180d3000080d30082
:100ca0000804e800f8ff3a004700200061046000f3
:100cb00005047400040464000d003200610040006b
:100cc000e080480060014900e081490003b8a500c8
:100cd000070032000603e8006538e10004003a002e
:100ce0008301d1000281d3008180d3000080d30032
:100cf000f87f20000830e100030035000803780089
:100d00006000b8006011b8004433dd00f300b200a9
:100d10008301730000000600889fbe008a9fbe000a
:100d20008c9fbe000404be000605be00809fbe006e
:100d3000829fbe009b010700040678000800be00e9
:100d40000a01be0097010700840678004f03be0029
:100d50004f02be008d4f76007fb097001300330026
:100d6000f0ff2f008b8f6b0006003b000d06660026
:100d70000c00a7000a00370007f0a60010002000b2
:100d80000a003700880f5200898f5a008a0f5b00d3
:100d90008b8f5b00030039001000200001003e0033
:100da0000000200007f0a7000000ea004f06be0088
:100db0004f05be004f04be00000006001400fa00fc
:100dc000889fbe008a9fbe008c9fbe0004067800ec
:100dd000e80247008292be008092be0005007800c3
:100de0003a0007006200e10033003a006000b800fa
:100df0006011b8001e0390000c035300f63fb100d1
:100e0000220035004b0320000b30e1002a003d009a
:100e1000fb012000faff2f006154b9006c0147006c
:100e20008b05d1000a85d3008984d3000884d300c0
:100e30000603e900faff3b003200be001201be00cb
:100e40000002640081826400020365008383650000
:100e500005027200060272000702720016003200dc
:100e60000884ea008984ea000a85ea008b85ea00a2
:100e700000006400818064000201650083816500d8
:100e80006022b8001e03900077ff0700de03900089
:100e900007f0a70003f0a0000082eb000400e000d0
:100ea0008e0290004f06be004f05be004f04be00ec
:100eb0000080fa00000006006401470004002000e2
:100ec0003200be001201be00f4ff3700800078003f
:100ed0005002be005003be004439de00f700b200ed
:100ee000f37f200003016100090032000218e100d5
:100ef00016003a008501720083017300838173003c
:100f00000008200015003a004000200013003700c0
:100f100085017200830173008381730005003a002c
:100f200004a8be0006a8be00100020000b00370079
:100f30000201e9000402420085824a0006034b00d8
:100f400087834b000748a300f9ff32000740a00049
:100f500004a8be0006a8be00200020008000980063
:100f60009200980000000600881f780003047800b3
:100f70000300e00007003d0060001000e080180062
:100f800060011900e081190002003b0001f02d0012
:100f9000030037001501070008f0a70003f0a000c8
:100fa0004f04780000000600889fbe008a9fbe00a4
:100fb0000082700004027100048271002600320079
:100fc0000004be000200be006011b8006b092000e2
:100fd000950220000182cf000a0039000541b100ce
:100fe0000082cf00070039000541b1000982cf001f
:100ff000040039000541b1000882cf00010039002a
:101000000541b10005425200120032000a003b00c7
:1010100082817100610164008100d1000080d300f1
:101020008984d3000884d3008b05e8000442e800db
:10103000f7ff3a00070037000804440089844c0099
:1010400000004800818048008b05e9000442e90067
:10105000f9ff3a00100107004f05be004f04be0023
:1010600000000600c70ade00f107b200f50fb2006b
:1010700008003200e1cf4200020032000170a000ff
:1010800024000500810f70000100320004080500f3
:1010900044000500810f700002003a0014000500b2
:1010a0008502e9000000400081c04800fcff3b00d1
:1010b0000170a000240005000800fa00889fbe000f
:1010c0008a9fbe008c9fbe00040678000004be000c
:1010d0000205be00b30007006420e1009f003e004f
:1010e0009b0032006120e1009600320003f0a10075
:1010f000171b240036582c0005a0210004002000f6
:1011000028fd07000800be000a01be0007003500e8
:1011100097012400b61f22004544250084d12200f7
:10112000030107000004be000205be008006eb00bc
:101130000c00a700cf1ede0003f0a1000bf0a10001
:1011400047fd230006f3250095dc260034882c009b
:101150009ffc07006022b8000003eb0007fe23009d
:101160000c00a60007ff230013fd070098fd0700f1
:101170000000a7000d00a200c3fd07000c00e00066
:1011800004003a0007fe2300060020006022b80099
:10119000bbfd070003f0a200009fbe000297be0047
:1011a00097002400060022006022b80088fc070097
:1011b0000802be000a03be00fffc0700809fbe00bd
:1011c000829fbe003e00be002e01be00f7f4230049
:1011d00046542b00152d2400a44628007cfc070053
:1011e0004f03be004f02be00f3fc07000004be0028
:1011f0000205be0003f0a10067e42300e6092a000f
:10120000f5672600d4bc2300e6fc07000800be00fa
:101210000a01be00480035000002be000203be0005
:101220006bfc0700009fbe000297be0087ce230024
:10123000f60f28003599260054f92d0064fc0700ac
:10124000a7d62b0006422e0085c02d00c49924008d
:10125000d9fc07003e02be002e03be005cfc070066
:1012600067de2300c6232100a586260004432d0047
:10127000d1fc07003e02be002e03be0054fc070056
:10128000a7e52b0056642e00d5b52400b40a2c0027
:10129000c9fc07003e02be002e03be004cfc070046
:1012a00077ec230036de210045522a0034062f0059
:1012b000c1fc07003e02be002e03be0044fc070036
:1012c000a7f22b00061a200015a02100a4e123009c
:1012d000b9fc07003e02be002e03be003cfc070026
:1012e00017f823001611210015112100040b21000d
:1012f000b1fc07003e02be002e03be0034fc070016
:1013000057fc2b00565525005555250054552500f2
:10131000a9fc07003e02be002e03be002cfc070005
:101320000802be000a03be0029fc07000802be0036
:101330000a03be00a0fc07000d00a70003f0a200f6
:1013400044fe37000c00a60003ff230041fe3700d7
:10135000f3ff2700f2ff2f006110b9000330a00057
:1013600014022000b47488003afe3700e482400082
:101370001078a30007003200640240001178a30037
:101380003400be001401be00040032000330a70088
:10139000000006003500be001501be000330a000ad
:1013a0000000060005ff27000582610007003200eb
:1013b0000428e100010032002400050006000700b7
:1013c00001003a004400050004080500020007007f
:1013d000f9ff3a00140005006f826100810270007d
:1013e000850271008502720000000600889fbe0021
:1013f0000082700004027100048271002400320037
:1014000036432000c50020008383cf000a00390046
:101410000541b1008283cf00070039000541b100ca
:101420008183cf00040039000541b1008083cf00e3
:10143000010039000541b10085c353006022b800a6
:10144000120032000a003b008482720061026000d8
:101450008301d1000281d3008180d3000080d300ba
:101460000603e8008743e800f7ff3a00070037006b
:10147000000040008180480002014900838149004a
:101480000603e9008743e900f9ff3a00f6fd07008b
:101490004f04be000000060081002000618055005e
:1014a0000b003d000b00200061fe2f000100e10059
:1014b0001d00340082817100610164008904d10043
:1014c0000884d3000000e800faff3a007100200011
:1014d0006100640003007000020060000900320037
:1014e00061044400e0844c000988a5000500320036
:1014f0008b05e8006808e10002003a008904d10089
:101500000884d300f20f20000258e10005003d00de
:10151000c75ddd00f907b20089807500080078001a
:10152000000006000bf827008b0078000000050083
:10153000801feb00020007008f87e9000000060013
:101540002800fa00889fbe008a9fbe008c9fbe00c4
:101550000efe9700abfd07006108e1005c00320061
:101560006200e1005a003e00540039006408e100c6
:10157000520032006c014700748557003200be00f3
:101580001201be003a04be001a05be009e02900081
:10159000be0e90000d82520017003b000402e800ce
:1015a00046003a00880f5000898f58008a0f590072
:1015b0008b8f5900410034006401470078034700d5
:1015c0003200be001201be003602be001603be008d
:1015d00007f0a10003f0a60007f0a0000c70a70020
:1015e000f5fb07009bfd37000000400081804800ac
:1015f00002014900838149000c00a000080050004e
:10160000898058000a0159008b81590005003b0070
:1016100008004000898048000a0149008b81490088
:101620000c00a1000402e900efff3b0000024000b3
:101630008182480002034900838349001b00320075
:101640000802520089825a000a035b008b835b0008
:101650004200f8000500370000004000818048008b
:1016600002014900838149008d06e9000340a6007c
:10167000f9ff37006022b8000d0378007afd0700fb
:10168000780347004200f9000800350002003c00e2
:101690000c08a300050032003602be001603be008f
:1016a00007f0a0000c70a700c3fb07005e029000cb
:1016b00004f0a70003f0a20066fd37002e009000a2
:1016c000be0090004e019000de01900061fd3700e9
:1016d000100220000c70a600b07488005afd37007c
:020000040000fa
:0200000401f009
:04000000178700005e
:020000040000fa
:0200000401f009
:040004003f000000b9
:020000040000fa
:0200000401f009
:04000800b3870000ba
:020000040000fa
:0200000401f009
:04001400ffff0000ea
:020000040000fa
:0200000401f009
:0400180003c0000021
:020000040000fa
:040034002c2e00006e
:020000040000fa
:040040004e2e000040
:020000040000fa
:04004400702e00001a
:020000040000fa
:04007c00922e0000c0
:020000040000fa
:1016e0000046000072650000712e000028480000ce
:1016f0007a290000005300006b6900007020000090
:10170000617400003a00000054720000656d000032
:101710006f6c00006f0000004465000070740000f2
:1017200068200000282500002900000056690000fc
:1017300062720000617400006f00000043680000e6
:101740006f72000075730000005600006f690000a2
:1017500063650000733a0000004600006c61000001
:101760006e670000657200000042000079700000a2
:1017700061730000730000004269000074200000e3
:10178000437200007573000068650000720000007d
:1017900052650000736c00002e00000044690000d8
:1017a000737400006f720000746900006f6e0000b7
:1017b00000470000616900006e00000057610000f2
:1017c0006820000057610000680000005100000020
:1017d00042690000617300002025000000500000f5
:1017e0006f770000657200002025000000420000b5
:1017f0006572000077690000636b000046580000c6
:101800000042000079700000617300007365000001
:10181000640000000000000001000000040000005f
:1018200006000000080000000a0000000b00000095
:101830000d0000000e0000000e0000000e00000071
:101840000d0000000d0000000d0000000d00000064
:101850000d0000000f00000010000000110000004b
:10186000120000001300000013000000130000002d
:10187000130000001300000012000000110000001f
:101880000f0000000e0000000d0000000d00000021
:101890000d0000000d0000000d0000000c00000015
:1018a0000b0000000b0000000d0000000e00000007
:1018b0000e0000000f0000000e0000000e000000ef
:1018c0000d0000000d0000000d0000000e000000e3
:1018d0000f0000000f0000001000000011000000c9
:1018e00013000000140000001500000015000000a7
:1018f0001500000016000000160000001700000090
:101900001600000016000000150000001400000082
:101910001300000011000000100000000e00000085
:101920000d0000000b00000009000000080000008e
:10193000060000000300000001000000feff0000a0
:10194000faff0000f6ff0000f3ff0000efff0000c9
:10195000ecff0000e9ff0000e7ff0000e6ff0000e9
:10196000e4ff0000e3ff0000e3ff0000e3ff0000ee
:10197000e2ff0000e2ff0000e1ff0000e0ff0000e6
:10198000dfff0000deff0000deff0000deff0000e2
:10199000ddff0000daff0000d8ff0000d6ff0000e6
:1019a000d4ff0000d2ff0000d0ff0000cdff0000f8
:1019b000ccff0000cbff0000c9ff0000c7ff000004
:1019c000c4ff0000c1ff0000c0ff0000bfff000017
:1019d000bdff0000bcff0000baff0000b8ff000020
:1019e000b6ff0000b3ff0000b0ff0000aeff000034
:1019f000abff0000a8ff0000a6ff0000a4ff00004e
:101a0000a2ff0000a2ff0000a1ff0000a1ff000054
:101a10009fff00009dff00009cff00009cff000056
:101a20009dff00009eff00009eff00009eff000043
:101a3000a0ff0000a1ff0000a1ff0000a2ff000026
:101a4000a2ff0000a2ff0000a3ff0000a4ff00000f
:101a5000a6ff0000a8ff0000aaff0000aaff0000e8
:101a6000abff0000acff0000aeff0000b0ff0000c5
:101a7000b1ff0000b3ff0000b5ff0000b8ff000099
:101a8000bbff0000bdff0000beff0000c0ff000064
:101a9000c1ff0000c2ff0000c3ff0000c5ff00003f
:101aa000c7ff0000c8ff0000c9ff0000c8ff00001a
:101ab000c7ff0000c6ff0000c6ff0000c6ff000011
:101ac000c8ff0000caff0000ccff0000cfff0000ed
:101ad000d2ff0000d5ff0000d8ff0000dbff0000b0
:101ae000deff0000e0ff0000e2ff0000e4ff000076
:101af000e6ff0000e7ff0000e8ff0000e9ff00004c
:101b0000ebff0000edff0000f0ff0000f2ff00001f
:101b1000f4ff0000f7ff0000f9ff0000fcff0000e9
:101b2000feff0000000000000200000003000000b3
:101b3000050000000500000006000000070000008e
:101b4000060000000600000006000000070000007c
:101b5000080000000a0000000d0000001000000056
:101b60001200000014000000160000001700000022
:101b7000180000001a0000001c0000001e000000f9
:101b800020000000210000002300000024000000cd
:101b90002500000026000000280000002a000000a8
:101ba0002c0000002e000000310000003500000075
:101bb000370000003a0000003d0000004000000037
:101bc00044000000480000004b0000004e000000f0
:101bd0004f0000004f0000004e0000004d000000cc
:101be0004c0000004a0000004a0000004a000000cb
:101bf0004b0000004b0000004b0000000000000004
:101c00003b03000075060000ae090000e60c000072
:101c10001b1000004e1300007e160000aa190000e1
:101c2000d21c0000f51f0000132300002b2600002b
:101c30003d290000492c00004d2f000049320000d2
:101c40003d350000293800000b3b0000e43d00005a
:101c5000b34000007743000030460000de4800003b
:101c60007f4b0000154e00009e50000019530000ed
:101c700087550000e7570000395a00007c5c0000df
:101c8000b05e0000d5600000ea620000ee64000073
:101c9000e3660000c6680000996a00005a6c000004
:101ca000096e0000a66f000032710000aa720000e9
:101cb0001074000064750000a4760000d077000066
:101cc000e9780000ef790000e17a0000be7b0000b7
:101cd000877c00003d7d0000dd7d0000697e000006
:101ce000e17e0000447f0000927f0000cb7f000077
:101cf000f07f0000ff7f0000fa7f0000e07f00001f
:101d0000b17f00006d7f0000157f0000a87e0000fd
:101d1000267e00008f7d0000e57c0000257c000011
:101d2000527b00006a7a00006f7900005f78000043
:101d30003c77000006760000bc7400006073000071
:101d4000f07100006e700000da6e0000346d00006b
:101d50007b6b0000b2690000d7670000eb650000f4
:101d6000ee630000e1610000c55f0000985d0000c7
:101d70005d5b000012590000b9560000525400008b
:101d8000dd5100005b4f0000cc4c0000304a0000e9
:101d900088470000d5440000164200004d3f000077
:101da000793c00009b390000b4360000c4330000c9
:101db000cc300000cc2d0000c42a0000b527000064
:101dc000a024000085210000641e00003f1b0000cd
:101dd00014180000e7140000b5110000810e000087
:101de0004a0b000012080000d80400009d0100000a
:101df0009d010000d8040000120800004a0b0000fa
:101e0000810e0000b5110000e71400001418000056
:101e10003f1b0000641e000085210000a02400007c
:101e2000b5270000c42a0000cc2d0000cc300000f3
:101e3000c4330000b43600009b390000793c000038
:101e40004d3f000016420000d544000088470000c6
:101e5000304a0000cc4c00005b4f0000dd51000018
:101e600052540000b9560000125900005d5b00009a
:101e7000985d0000c55f0000e1610000ee630000b6
:101e8000eb650000d7670000b26900007b6b0000c3
:101e9000346d0000da6e00006e700000f07100001a
:101ea00060730000bc740000067600003c77000000
:101eb0005f7800006f7900006a7a0000527b0000b2
:101ec000257c0000e57c00008f7d0000267e000060
:101ed000a87e0000157f00006d7f0000b17f00002c
:101ee000e07f0000fa7f0000ff7f0000f07f00002d
:101ef000cb7f0000927f0000447f0000e17e000065
:101f0000697e0000dd7d00003d7d0000877c0000d3
:101f1000be7b0000e17a0000ef790000e978000064
:101f2000d0770000a47600006475000010740000f3
:101f3000aa72000032710000a66f0000096e000056
:101f40005a6c0000996a0000c6680000e366000051
:101f5000ee640000ea620000d5600000b05e0000a0
:101f60007c5c0000395a0000e757000087550000ec
:101f7000195300009e500000154e00007f4b0000da
:101f8000de4800003046000077430000b340000008
:101f9000e43d00000b3b0000293800003d35000007
:101fa000493200004d2f0000492c00003d2900005f
:101fb0002b26000013230000f51f0000d21c000098
:101fc000aa1900007e1600004e1300001b1000002e
:101fd000e60c0000ae090000750600003b0300009f
:041fe00000000000fd
:020000040000fa
:101fe4000001eb000100e000080032001004e000f2
:101ff40003003a00050037005004e00003003200fb
:102004000201e800828f5000fbff3e0002007800ce
:1020140000000600e8874700889fbe008a9fbe0034
:102024008c9fbe008e1f7800e2b79f008306780065
:102034000046eb000d00e00043003200e00f5000ca
:10204400e08f580009003d00d2c2b300efb1970001
:102054008249780060011000e0811800f2b79f0007
:1020640083bf9f001c00200003003700f0b79f00cf
:1020740081bf9f000006eb0018002000090020002b
:102084001ec0b3007fb097008fb89700e00f5000d8
:10209400e08f58000300320008a02c00a9b92300e7
:1020a4000047eb008d0f560027003100e00f54006d
:1020b400e08f5c002b0032007fb597008fbd970046
:1020c400880f5500898f5d00020031000e04e00086
:1020d400120032000801be000a00be00abf807007f
:1020e40003c3b300834040006fb1970001717e00c9
:1020f4000c06e8000080fb008000eb0000c9b9007a
:102104000800b800810041000001550081815d0094
:10211400f2b79f0083bf9f001ec0b3008d0f56000f
:1021240009003100a2002000030020000800be00c6
:1021340096f807000004be00e00f5000e08f58003e
:10214400ddff3a00070037000c4078004f077800a5
:102154004f06be004f05be004f04be008f00b10005
:10216400000006000040eb00efb1970080717e0094
:10217400f5ff3700e4874700889fbe008a9fbe00b2
:102184008c9fbe008e1f780082bf9f0003077800db
:102194000046eb000e00e0002c0032001800200086
:1021a400090020006055b8001dc0b300e00f5000c6
:1021b400e08f5800040032000005be0008a02c0087
:1021c400a9b923008046eb000006eb00880f5500f8
:1021d400898f5d00020031000d04e0001000320020
:1021e4000801be000a00be0068f8070002c3b3007d
:1021f400824040000fb9970001717e000c06e80090
:102204000080fb008000eb0000c9b9000800b800a2
:10221400810041000005550081855d001dc0b300ab
:102224008e0f560009003100a20020000300200098
:102234000800be0055f807000004be00e00f50007f
:10224400e08f5800e1ff3a00070037000c407800a7
:102254004f0778004f06be004f05be004f04be0076
:102264004f00b100000006000040eb008fb897005b
:1022740080707e00f5ff3700e8874700889fbe0026
:102284008a9fbe008c9fbe008e1f7800e2b79f001d
:10229400830678000d00e00043003200e00f500098
:1022a400e08f580009003d00d2c2b300efb197009f
:1022b4008249780060011000e0811800f2b79f00a5
:1022c40083bf9f001c00200003003700f0b79f006d
:1022d40081bf9f000006eb001800200009002000c9
:1022e4001ec0b3007fb097008fb89700e00f500076
:1022f400e08f58000300320008a02c00a9b9230085
:102304000047eb008d0f560027003100e00f54000a
:10231400e08f5c002b0032007fb597008fbd9700e3
:10232400880f5500898f5d00020031000e04e00023
:10233400120032000801be000a00be0013f80700b4
:1023440003c3b300834040006fb1970001717e0066
:102354000c06e8000080fb008000eb0000c9b90017
:102364000800b800810041000001550081815d0032
:10237400f2b79f0083bf9f001ec0b3008d0f5600ad
:1023840009003100a2002000030020000800be0064
:10239400fef707000004be00e00f5000e08f580075
:1023a400ddff3a00070037006fb097004f07780051
:1023b4004f06be004f05be004f04be008f00b100a3
:1023c400000006000040eb00efb1970080717e0032
:1023d400f5ff3700889fbe00840f510009003200ca
:1023e4000100e000620032000500e0007c003200e1
:1023f400904378000003eb000704e00050003a002b
:102404005c0037000003eb000100e000090032002b
:102414001004e00007003200800378000200370057
:102424005704e000030032000603e800868f5000e2
:10243400fbff3e00868f520009003e000100e000d1
:10244400620032000500e0006500320010417800af
:102454000003eb000204e0002d003a005c003700aa
:102464008003eb000300e000160032001204e000d9
:102474001400320002047800020037005804e0001f
:10248400030032008703e800878f5100fbff3e0002
:1024940086815200838f5300010036008303780045
:1024a4000700e00007003200870441000683430070
:1024b40006044100870178008301e900496478003b
:1024c400fdff3a008001eb000100e0000e00320045
:1024d4000500e0000c003200104478000804e0001d
:1024e40009003200085978008301e800838f500006
:1024f40005003600838f52000300360050447800f4
:102504000804e000f7ff3a00078341003000370079
:10251400840178000003eb00825978000603e80088
:10252400868f50002a003600868f52002c00360019
:10253400504178000204e000f7ff3a00260037001b
:10254400040478000003eb00075c78000603e8004d
:10255400868f500007003600868f52002000360018
:10256400d04378000704e000f7ff3a000300370087
:102574000003eb00868f52001900360086034200e8
:102584000000eb000300e0000e003200068452005d
:102594000c003200924078000104e000090032008f
:1025a400815b78000000e800808f51000500360050
:1025b400800f540003003600d24078000104e0008c
:1025c400f7ff3a0006034000010037000003eb0068
:1025d400850f5300020031000040eb0000727b00c5
:1025e4004f04be00000006000100e00011003200ac
:1025f4000300e00016003200904278000504e00079
:102604000e003200020378000002eb00055b780044
:102614000402e800848f500009003600848f5100c2
:102624000b003600d04278000504e000f7ff3a00c2
:10263400050037000002eb00010037000002eb0048
:10264400848f5100020036000040eb0000717a00d4
:1026540000000600f8874700889fbe008a9fbe00de
:102664008c9fbe008e1f78000004be000205be00d1
:10267400d8b79f00e9b79f00fab79f008bbf9f00b0
:1026840084467800c5b79f00060778000d04e00073
:10269400110032006044b8000a0020000bfe230041
:1026a4000046eb000800be000a01be00a499290000
:1026b400959929009699290097fb230043f7070071
:1026c4000c46e8008ccf5600f8ff3e000004be0024
:1026d4000205be00030037006044b8000a00200071
:1026e4000bfe23006022b8006033b8005fb097008f
:1026f400efb097007fb197008fb99700a8f7070054
:102704000006eb000000e0000d003d005fb0970004
:10271400efb097007fb197008fb9970003f0a20044
:10272400d0b79f00e1b79f00f2b79f0083bf9f001f
:10273400d0c2b300cfb09700804878001c002000be
:102744000802be000a03be005fb09700efb0970016
:102754007fb197008fb9970096f707000004be0079
:102764000205be0010f807000002be000203be000e
:10277400d4b79f00e5b79f00f6b79f0087bf9f00bf
:1027840012f80700c3002000c2fd2f000f01410012
:10279400b9fe0700cfd897000104e0000d00320015
:1027a4000040eb004fb197008c0f57000200360039
:1027b40001717e000c06e8000040e8008080fb0008
:1027c400c5fd2f008f824200e5c078000104e000bf
:1027d400f5ff3a008c0f570004003600e0c2b30046
:1027e4004fb3970000737e000c06e8000d04e00070
:1027f4002a0032008e0f56002e0031005fb297007f
:10280400efb297007fb397008fbb97000800be001c
:102814000a01be0019f80700cfb397008c85430066
:102824000c057800020037008a0f5700210036009b
:102834006022b8000600200047022400e3f60700e7
:102844000002be000203be00d4b79f00e5b79f009c
:10285400f6b79f0087bf9f00dcf707000004be00a7
:1028640008f807000002be000203be005fb0970034
:10287400efb097007fb197008fb99700fff707007b
:1028840005c3b300855d44000a05e8000c42550009
:102894008d4f5200e4ff3900010037000c05780029
:1028a4008a0f5700030036000040eb004fb3970037
:1028b40000737d004fb097004f0778004f06be00ad
:1028c4004f05be004f04be008f01b100000006009a
:1028d400010161008180ea009080600001087100bc
:1028e400000006000282ea00910862000281610091
:1028f400100262000408710000000600908060006d
:102904000281fb000208de0000000600910871004d
:10291400100161000380fb000010de0000000600cf
:10292400889fbe00804478000904e000080032005b
:102934000044eb000060fe0080322700010020000c
:102944004cf607000844e80088cf5400f9ff3e0025
:102954004f04be0000000600889fbe008a1f780056
:10296400004578008044eb000a04e0000a003a00c5
:102974000b00370010c0b300e9ff07000804e800ab
:10298400703e2000800f5400faff3a008944e800aa
:10299400894f5500020036000004eb00f5ff3700b4
:1029a4004f0578004f04be0000000600881f780021
:1029b40000047800f00f2000800f54000700360058
:1029c40030ce2100010020002af60700f80fb100e4
:1029d400f00f2000800f5400f9ff3e000800e000d3
:1029e400030032000880fb007d00b80021f60700d8
:1029f4004f04780000000600881f78000004780067
:102a0400f00f2000800f540007003600804d2b008b
:102a14002107200017f60700f80fb100f00f20007f
:102a2400800f5400f9ff3e000800e000040032006b
:102a34000884fb00803227000040b8000df6070030
:102a44004f04780000000600881f78000004780016
:102a5400f00f2000800f54000600360000c0eb0089
:102a6400afff0700f80fb100f00f2000800f5400f3
:102a7400faff3e000800e00002003200084078003f
:102a8400a7ff07004f04780000000600881f7800a5
:102a940000047800f00f2000800f54000700360077
:102aa40000bc260021012c00f2f50700f80fb1004c
:102ab400f00f2000800f5400f9ff3e000800e000f2
:102ac400080032000880fb008000eb00121c20008c
:102ad4000281b90004442d000400b80081004100c3
:102ae400e4f507004f04780000000600881f780012
:102af40000047800f00f2000800f54000600360018
:102b040000c0eb0094ff0700f80fb100f00f2000a5
:102b1400800f5400faff3e000800e000020032007b
:102b2400084078008cff07004f047800000006007e
:102b3400642c2000e4728800144378008682fb0031
:102b4400c57288000080fb0015002000802add008b
:102b5400054a7300a022ef00a222ef00a422ef0096
:102b6400a622ef008582ea008002fd00a822b600ba
:102b74008002fd006f006000301588000204e00050
:102b840003003a00f0ff2100a222b6000100370042
:102b9400a3a2a800a422ef000168a300020032004f
:102ba400a4e2a80002003700f103b2002115880056
:102bb400a1e2a800a022a8000380fb007d00b800c9
:102bc400acf50700a022a90000000600881f7800c9
:102bd400a002ab00feff32000004e000020032005d
:102be4000814800002003700081480004444de000a
:102bf400a022a800d0012000010020009df50700bc
:102c0400a022a900080078004f0478000000060004
:102c1400e072800081e5200091407800014878004e
:102c2400a1e2a900a8a2ef0000000600de62a9004c
:102c3400e262a800de42a800f0fb2f00de22b6000c
:102c4400e222b600b00120001011880022a2a800e0
:102c540022c2a9002302a9002322a90020c2a9009c
:102c640021e2a8000000060021e2a900de62a8001b
:102c7400de42a800dec2a800000006002111800088
:102c84000080fb00201188002002ab00feff320010
:102c9400201180000000060094eeb7000004e0005c
:102ca40003003a00b0c1b30094eeb7004800370007
:102cb400e14f500003003a00e0c1b30094eeb700c6
:102cc40043003700e24f500003003a00b0c0b300a5
:102cd40094eeb7003e003700e34f500002003a0084
:102ce40094eeb7003a003700e44f500003003a0076
:102cf40060c1b30094eeb70035003700e54f5000d3
:102d040003003a00d0c1b30094eeb700300037009e
:102d1400e64f500003003a00e0c0b30094eeb70061
:102d24002b003700e74f500003003a00a0c0b30067
:102d340094eeb70026003700e84f500003003a0035
:102d440060c0b30094eeb70021003700e94f500093
:102d540003003a0090c1b30094eeb7001c003700a2
:102d6400ea4f500003003a0050c1b30094eeb7009c
:102d740017003700eb4f500003003a00c0c1b30006
:102d840094eeb70012003700ec4f500003003a00f5
:102d940080c1b30094eeb7000d003700ed4f500032
:102da40003003a0040c1b30094eeb70008003700b6
:102db400ee4f500003003a0000c1b30094eeb70098
:102dc40003003700ef4f500001003a00946eef000b
:102dd40021e2a90000fe2f002222b60094cebf00fb
:102de4007f0060002222b70021e2a8000000060054
:102df40000000600000006000000060000000500b8
:102e040000000600889fbe008a1f78000005780035
:102e14000a00780072fc0700804478000904e0008e
:102e2400060032000a0478003840780093ff070057
:102e34000a40540080cf5400fbff3e004f05780049
:102e44004f04be00000006000200fa00889fbe0086
:102e54008a1f780080047800010578000244780015
:102e640083ff9f008a017800090178001100200087
:102e740000b72800dcfd07000804e0000c00320065
:102e840050c5b3007dff070080ff9f00450120006f
:102e94000902780013002000688157008a00780036
:102ea400090078004bfd07000844e900f4ff3a00ec
:102eb4004f0578004f04be000080fa0000000600b1
:102ec4006eff370050c5b3006cff370066ff370054
:102ed40056ff3700889fbe008a1f78008044780020
:102ee40001457800e2ff2f00202d2000100861002a
:102ef400b016800002006000a0168800d1ff2f00e9
:102f0400202d200010886000b016800001006000b1
:102f1400a0168800b1ff2f00202d2000108860002b
:102f2400b016800001006000a016880071ff2f0019
:102f3400202d200010886000b01680000100600081
:102f4400a0168800f1ef2f00202d200010886000cb
:102f5400b016800001006000a0168800f1df2f0089
:102f6400202d200010886000b01680000100600051
:102f7400a01688008980fb00c408de00202d2000f4
:102f8400100861000108a30005003200b01680009b
:102f94000000a000a0168800a016800005003700dd
:102fa400e2ff2f00b016800002006000a016880027
:102fb400a01680000180fb000000d100d222a900ed
:102fc4000008a30005003200b11680000110a00023
:102fd400a1168800a116800005003700d1ff2f003c
:102fe400b216800001016100a2168800a1168000bb
:102ff4000080fb000000d100d242a9000008a30019
:1030040005003200b11680000120a000a11688003e
:10301400a116800005003700b1ff2f00b216800012
:1030240001016100a2168800a1168000d262a900e5
:103034000018a30005003200b01680000030a00084
:10304400a0168800a01680000500370071ff2f002d
:10305400b016800001006000a0168800a016800051
:103064000a04e00004003200d302a900b016800074
:103074000080a000a016880040b5200001002000b8
:103084007cf40700f8df2f00222d200012096400d1
:10309400b01680000090a000a016880040b5200063
:1030a4000100200073f40700202d200010086400a4
:1030b400b216800008016100a216880040b5200005
:1030c400010020006bf40700e2ff2f00202d2000f8
:1030d40010086100b016800002006000a01688008d
:1030e400d1ff2f00202d200010886000b016800032
:1030f40001006000a0168800b1ff2f00202d2000e1
:1031040010886000b016800001006000a0168800de
:1031140071ff2f00202d200010886000b016800061
:1031240001006000a0168800f1ef2f00202d200080
:1031340010886000b016800001006000a0168800ae
:10314400efc46400202d2000100861000908a300ca
:1031540005003200b01680000000a000a016880010
:10316400a016800005003700e1ff2f00b216800092
:1031740001016100a2168800a01680008984fb006a
:103184000900d100d222a9000008a30005003200e2
:10319400b11680000110a000a1168800a1168000bd
:1031a40005003700d1ff2f00b21680000101610035
:1031b400a2168800a11680000080fb000000d10048
:1031c400d242a9000008a30005003200b116800015
:1031d4000120a000a1168800a11680000500370078
:1031e400b1ff2f00b216800001016100a216880011
:1031f400a1168000d262a9000018a30005003200c5
:10320400b01680000030a000a0168800a016800030
:103214000500370071ff2f00b01680000100600028
:10322400a0168800a01680000a04e0000400320002
:10323400d302a900b01680000080a000a016880068
:1032440040b52000010020000af40700f8df2f0039
:10325400222d200012096400b01680000090a00006
:10326400a016880040b520000100200001f40700ea
:10327400202d200010086400b216800008016100af
:10328400a216880040b5200001002000f9f30700d1
:103294004f0578004f04be0000000600889fbe0062
:1032a40000447800c9c1b3000104e00001003a0001
:1032b40089c1b3000804e000050032008040eb003f
:1032c4000940780003ff07000844e900fbff3a00c7
:1032d4004f04be00000006008040eb00fdfe070026
:1032e40000652e0001002000e2f3370002ccb30099
:1032f4000104e00001003a0002c8b30000404100ac
:103304008040eb00f3fe070000652e000100200062
:10331400d8f33700889fbe0080447800e1cf540082
:103324000d003e00894078000040eb00efff0700ed
:103334000044eb0011c0b30000c2b300e5fe070077
:103344000844e800f04f5400faff3a00894078003e
:103354000040eb00e5ff07004f04be00000006003c
:1033640011c0b300dbfe3700889fbe008a1f7800bf
:10337400000578000a00780019fb070080447800f3
:103384000904e000070032000a047800384078009d
:1033940011c0b300cffe07000a40540080cf540090
:1033a400faff3e004f0578004f04be0000000600ff
:1033b4001000fa000204e00004003200f3002000d0
:1033c400708157006bfb070003003700f3002000f7
:1033d400708157000ffb0700f10020007080570038
:1033e400e1ff07000080fa00000006000a00fa006e
:1033f400cf80de00a30020006a8157009efb0700f7
:10340400a10020006a805700d7ff07000080fa005f
:10341400000006008040eb0010c0b300adfe0700c2
:1034240000652e000100200092f307008040eb00ad
:1034340020c0b300a7fe070000652e000100200095
:103444008cf337008f87e800889fbe008a9fbe00f8
:103454008c9fbe008e1f780001447800824478005f
:103464000345780084457800054678008646780050
:1034740007477800310020000100dd000044b0005f
:103484008040eb0093fe070000652e000100200041
:1034940078f3070011c0b300084078008dfe0700e0
:1034a40011c0b300094078008afe070011c0b300c0
:1034b4000a40780087fe070011c0b3000b40780073
:1034c40084fe070011c0b3000c40780081fe0700a1
:1034d40011c0b3000d4078007efe070011c0b30098
:1034e4000e4078007bfe070011c0b3002fe8970060
:1034f40078fe0700c7ff07004f0778004f06be009d
:103504004f05be004f04be002f00b10000000600ae
:1035140000000600e1ff2f00202d2000108860002d
:10352400b016800001006000a0168800d1ff2f00b3
:10353400202d200010886000b0168000010060007b
:10354400a0168800b1ff2f00202d200010886000f5
:10355400b016800001006000a016880071ff2f00e3
:10356400202d200010886000b0168000010060004b
:10357400a0168800f1ef2f00202d20001088600095
:10358400b016800001006000a0168800f1df2f0053
:10359400202d200010886000b0168000010060001b
:1035a400a0168800005e26005100200031f30700b9
:1035b4008040eb0030c3b30046fe070000652e00d8
:1035c400010020002bf307008040eb0030c3b30060
:1035d40040fe070000652e000100200025f30700cf
:1035e4008040eb0020c3b3003afe070000652e00c4
:1035f400010020001ff307008040eb00c0c2b300ad
:1036040034fe070000652e000100200019f30700b6
:103614008040eb0060c0b3002efe070000652e0062
:103624000100200013f307008040eb00c0c0b3008a
:1036340028fe070000652e00010020000df307009e
:103644008040eb0010c0b30022fe070000652e008e
:103654000100200007f307008040eb0020c0b30006
:103664001cfe070000652e000100200001f3070086
:1036740068ff370010c0b30054fd3700889fbe00b8
:103684008a9fbe0000457800814578000b04e00065
:1036940006003a008044eb000004eb000a04e0005a
:1036a40012003a0009417800170037000041eb008e
:1036b4000004eb000a04e0001300320082447800a6
:1036c4000040eb0041fd0700000444008944e80089
:1036d4000b80fb007d00b800e6f20700894f55001f
:1036e400f7ff3e000a417800070037000040eb0076
:1036f40036fd0700000444008944e800894f550062
:10370400faff3e000a4178000281fb001100090023
:103714000284d8004f05be004f04be00000006001e
:10372400889fbe00804478000144780083c2b300bf
:103734000041eb0031c0b30090c0b300fcfc0700b3
:103744008840780009407800ccff070000447800e6
:103754002ffd0700084078004f04be00000006005b
:10376400889fbe008a9fbe008c1f78008045780029
:10377400014678000c04e00006003a000045eb0026
:103784006044b8000b04e00013003a000a417800da
:10379400190037000041eb006044b8000b04e0005e
:1037a400150032000245780010c0b30007fd070081
:1037b40008044000e0844c000a45e8000c80fb004b
:1037c4007d00b800abf207008acf5500f6ff3e003b
:1037d4000b4178000800370010c0b300fbfc070061
:1037e40008044000e0844c000a45e8008acf5500f4
:1037f400f9ff3e000b4178000281fb008001eb00e1
:103804000800be00e1f207004f0678004f05be0035
:103814004f04be0000000600889fbe00804478006c
:103824000144780083c2b3000041eb0031c0b3000f
:1038340090c0b300befc07008840780009407800bf
:10384400c7ff070000047800f1fc070008007800b7
:103854004f04be0000000600881f780083c2b30036
:103864000041eb0031c0b30090c0b300b0fc0700ce
:1038740010c0b300d5fc070000047800e4fc070086
:103884006140b80002f4070003f4070014d82e00c6
:1038940005462c00e613200047f52300cbf2070071
:1038a4004f04780000000600889fbe008004780062
:1038b40001047800e8ff0700080378008902780013
:1038c40064c0b30063fb07004f04be0000000600a1
:1038d40083c2b3000041eb0031c0b30090c0b30019
:1038e40093fc37000040eb00b8fc3700881f7800d9
:1038f40083c2b3000041eb0031c0b30090c0b300f9
:103904008bfc070010c0b300b0fc07000004780073
:10391400bffc0700080078004f0478000000060090
:10392400bbfc3700881f780083c2b3000041eb0062
:1039340031c0b30090c0b3007dfc07000040eb0031
:10394400a2fc070000047800b1fc070008407800de
:103954004f0478000000060031438000607380004b
:103964001274800000804000110009000280d80019
:10397400314388003043800000004000e1df28002c
:10398400e100780091738800e0418000e30f50006b
:103994000c003a008043800000004000a1c02800d1
:1039a400e1007800c14088008043800012748000e8
:1039b4000000e800110009000280d800814388005b
:1039c400000006003c28ec0000000600889fbe00b2
:1039d4008a9fbe004848e2001a00320025ff070013
:1039e40020738800207380004800de002073880064
:1039f400642eec0080728000640ee300f900320053
:103a0400640ef800500ef90010c0b30041fe070028
:103a14000101200010b7280053fe070041c1b30084
:103a2400a0c0b30031fe0700807280008000eb006c
:103a340012c0b3005efe0700640ef8006c0ef900bd
:103a4400e80037004448e2001d00320068c8bf00a7
:103a5400e14f5000e3003a0006ff0700207388009e
:103a6400207380004800de0020738800642eec0080
:103a740080728000640ee300da003200640ef80005
:103a8400500ef90010c0b30022fe0700010120000f
:103a940010b7280034fe070041c1b300a0c0b30032
:103aa40012fe0700807280008000eb0012c0b30099
:103ab4003ffe0700640ef8006c0ef900c9003700e1
:103ac4004048e2001a0032001b48e200c5003a00f8
:103ad400e8fe070090408800904080004400de002b
:103ae4009040880012a8ec00807280001208e30065
:103af400bc0032001208f800500ef90010c0b300e8
:103b040004fe070001012000b0b7280016fe0700dc
:103b140041c1b300a0c0b300f4fd0700807280006f
:103b24008000eb0012c0b30021fe0700ad00370097
:103b34003a48e200ab003200cefe0700f073880082
:103b44007e2ed500f073800000004000f0738800e2
:103b5400c01220007e2eb400807280007e0ee3002e
:103b6400a00032007e0ef800500ef90010c0b30021
:103b7400e8fd07000101200010b72800fafd070046
:103b840041c1b300a0c0b300d8fd0700807280001b
:103b940016fe0700f07380008000eb003cf3070082
:103ba4003df30700748a2e0085e42200f61f2200ec
:103bb4009700240005f207006022b80006002700e1
:103bc400770d240053f30700acf307000002be0096
:103bd4000203be0077f207001040880021408800ed
:103be4003240880043408800907480008000eb00dd
:103bf40027f3070028f307000002be000203be00fb
:103c04006000b8000200200003ff230041f3070016
:103c140090418800a1418800b2418800c3418800d6
:103c240010408000214080003240800043408000ea
:103c340094418000a5418000b6418000c7418000c6
:103c4400e2f107000002be000203be006000b800fb
:103c54000200200003ff230008f30700d04288007d
:103c6400e1428800f24288000343880090418000ca
:103c7400a1418000b2418000c341800081f307006c
:103c840000418800114188002241880033418800a6
:103c9400104080002140800032408000434080007a
:103ca4000441800015418000264180003741800096
:103cb400c6f10700c0448800d1448800e24488006b
:103cc400f3448800c0448000d1448000e244800072
:103cd400f34480000045880011458800224588008f
:103ce400334588001040800021408000324080002d
:103cf400434080001440800025408000364080000e
:103d040047408000d8428000e9428000fa428000a7
:103d14000b438000adf107000802be000a03be0099
:103d2400d6f207006022b8000600200007ff230037
:103d3400d2f20700a0718800b1718800c2718800b6
:103d4400d3718800d0428000e1428000f2428000ba
:103d540003438000e0718800f171880002728800da
:103d640013728800c0448000d1448000e244800083
:103d7400f34480006022b80006002000070c2400f1
:103d840092f1070091f2070080458800b008f8001e
:103d9400b208f900a0718000b1718000c271800086
:103da400d37180006022b80006002000070c2400b4
:103db40086f1070085f20700a0458800e0718000c5
:103dc400f171800002728000137280006022b800da
:103dd40006002000070c24007cf107007bf207009a
:103de400b04588004f05be004f04be000000060029
:103df4008041eb0012002000612c2000802c200068
:103e0400c2fa070000f0a7000000ea000000ea0080
:103e14004f00de0072e8b70013c0b3002200200098
:103e2400612c2000802c2000b8fa070000f0a700c5
:103e34000000ea000000ea004f00de0000e8b700de
:103e440023c0b30042002000612c2000802c2000fd
:103e5400aefa070000f0a7000000ea000000ea0044
:103e64004f00de0010e8b70033c0b300820020002a
:103e7400612c2000802c2000a4fa070000f0a70089
:103e84000000ea000000ea004f00de001ae8b70074
:103e940043c0b30002012000612c2000802c2000cc
:103ea4009afa070000f0a7000000ea000000ea0008
:103eb4004f00de001fe8b70053c0b3000202200029
:103ec400612c2000802c200090fa070000f0a7004d
:103ed4000000ea000000ea004f00de002de8b70011
:103ee40063c0b30002042000612c2000802c200059
:103ef40086fa070000f0a7000000ea000000ea00cc
:103f04004f00de0041e8b70073c0b3000208200090
:103f1400612c2000802c20007cfa070000f0a70010
:103f24000000ea000000ea004f00de0054e8b70099
:103f340000000600889fbe008a9fbe00acff0700f9
:103f44007248e200430032002c48e20041003a008b
:103f540010c0b3002ce8b7002e68ef004848e20018
:103f640006003a0048e8b7004468ef00806eef00ae
:103f74004068ef003a68ef000900370073c8bf00db
:103f84000080fb000000e80022002000110009006e
:103f94000200d800014178003087200002487800f0
:103fa40010c0b300dbfc070073c8bf00030032007d
:103fb400e14f5000e5003a00130037000040eb00e9
:103fc400d4fc07000101200040b82800e6fc0700eb
:103fd40010c0b300cffc070001012000c0b82800c6
:103fe400e1fc070041c1b300a0c0b300bffc07005f
:103ff40086cebf000080fb00fcfc070010c0b300ad
:104004006eeeb700d10037000040eb00c1fc0700a2
:104014000101200060b92800d3fc070010c0b300e0
:10402400bcfc070001012000c0b82800cefc07003a
:1040340041c1b300a0c0b300acfc07006fcebf0009
:104044000080fb00e9fc070010c0b3006eeeb7006f
:10405400be0037000048e200400032002c48e20075
:104064003e003a0010c0b3002ce8b7002e68ef0001
:104074004448e20006003a0044e8b7004868ef000c
:10408400806eef004068ef003a68ef0008003700e8
:1040940068c8bf000080fb000000e8002200200088
:1040a400110009000200d8000140780068e8b70058
:1040b40068c8bf0003003200e14f5000a3003a007b
:1040c400130037000040eb0092fc070001012000c0
:1040d400e0b92800a4fc070010c0b3008dfc070061
:1040e4000101200050ba28009ffc070041c1b30021
:1040f400a0c0b3007dfc070070cebf000080fb00b1
:10410400bafc070020c0b3006eeeb7008f00370082
:104114000040eb007ffc070001012000d0ba28001a
:1041240091fc070010c0b3007afc070001012000d5
:10413400c0b828008cfc070041c1b300a0c0b30084
:104144006afc070086cebf000080fb00a7fc0700c6
:1041540010c0b3006eeeb7007c0037001048e200d8
:10416400180032002c48e20016003a00804ee200ab
:1041740014003a0010c0b3002ce8b7002e68ef001a
:10418400804ee20005003a0080eeb7004868ef0078
:104194004468ef004068ef003a68ef000040eb002d
:1041a4005cfc07000101200050bb28006efc0700e6
:1041b40010c0b30057fc070010c0b3006eeeb70088
:1041c400620037001a48e2003f0032002c48e20047
:1041d4003d003a0010c0b3002ce8b7002e68ef0091
:1041e4004048e20006003a0040e8b7004868ef00a3
:1041f4004468ef00806eef003a68ef000900370072
:104204001bc8bf000080fb000000e8002200200063
:10421400110009000200d80081417800b281200019
:10422400034978001bc8bf0003003200e14f50006f
:1042340046003a00120037000040eb0035fc07004e
:1042440001012000c0bb280047fc070010c0b300d8
:1042540030fc07000101200080bc280042fc07005c
:1042640041c1b300a0c0b30020fc0700207480004b
:104274005efc070010c0b3006eeeb70033003700d9
:104284000040eb0023fc070001012000e0bc2800f3
:1042940035fc070010c0b3001efc0700010120001c
:1042a40090bd280030fc070041c1b300a0c0b3009a
:1042b4000efc0700c07380004cfc070030c0b30044
:1042c4006eeeb700210037001f48e2001f003200e5
:1042d4002c48e2001d003a003a48e2001b003a0074
:1042e40010c0b3002ce8b7002e68ef003a48e20093
:1042f40005003a003ae8b7004868ef004468ef0068
:10430400806eef004068ef000040eb0001fc070006
:1043140001012000e0bd280013fc070010c0b30019
:10432400fcfb07000101200060be28000efc070012
:1043340041c1b300a0c0b300ecfb0700907480003f
:104344002afc070020c0b3006eeeb7002d48e2003f
:104354009f0032005548e2009d003a0010c0b300af
:1043640055e8b7002ec8bf00e2e6200012417800ed
:104374000080fb000000e8000281fb00110009003e
:104384000200d80001417800e08220000248780051
:104394004848e2001a00320073c8bf00e14f5000e1
:1043a4000b003a00dbfb070001012000c0b8280025
:1043b400edfb070041c1b300a0c0b300cbfb070075
:1043c4006fcebf000080fb0008fc070080003700b0
:1043d40010c0b300cffb070001012000c0b82800c3
:1043e400e1fb070041c1b300a0c0b300bffb07005d
:1043f40086cebf000080fb00fcfb07007400370082
:104404004448e2002e00320068c8bf0003003200b6
:10441400e14f50006e003a001d0037002ec8bf0067
:1044240003003200e14f500069003a000c003700ed
:1044340010c0b300b7fb07000101200050ba2800e8
:10444400c9fb070041c1b300a0c0b300a7fb07002c
:1044540070cebf000080fb00e4fb07005c00370067
:1044640010c0b300abfb070001012000c0b8280056
:10447400bdfb070041c1b300a0c0b3009bfb070014
:1044840086cebf000080fb00d8fb07005000370039
:1044940010c0b3009ffb070001012000c0b8280032
:1044a400b1fb070041c1b300a0c0b3008ffb0700fc
:1044b40076cebf000080fb00ccfb07004400370031
:1044c4004048e200360032001bc8bf00e14f5000f4
:1044d40028003a002ec8bf00e14f50000f00320000
:1044e40003003900e24f500039003a00160037004b
:1044f40010c0b30087fb07000101200090bd280015
:1045040099fb070041c1b300a0c0b30077fb0700cb
:10451400c0738000b5fb07002d00370010c0b30046
:104524007cfb07000101200080be28008efb0700f1
:1045340041c1b300a0c0b3006cfb07004041800040
:10454400aafb07002200370010c0b30071fb07006c
:1045540001012000f0be280083fb070041c1b30025
:10456400a0c0b30061fb0700507480009ffb0700ec
:104574001700370010c0b30066fb070001012000dc
:1045840080bc280078fb070041c1b300a0c0b30081
:1045940056fb07002074800094fb07000c003700d2
:1045a4003a48e2000a00320010c0b30059fb070089
:1045b4000101200060be28006bfb070041c1b3006d
:1045c400a0c0b30049fb07009074800087fb07007c
:1045d4004148e200070132001148e20005013a00b7
:1045e40010c0b30011e8b7004848e20015003200db
:1045f40073c8bf0003003200e14f500005023a00c7
:104604000800370070ff2700880ee30001023c0019
:1046140060662000882eb40050c0b300866eb400db
:10462400fc013700400620006a0ee300f901360061
:10463400c0e02f006a2eb40050c0b3006f6eb40007
:10464400f40137004448e2001f00320068c8bf008c
:1046540003003200e14f5000ee013a00120037002f
:104664002ec8bf0003003200e14f5000e9013a00b8
:104674000500370070cebf00e34f5000e5013e0057
:10468400706eec00e301370070ff2700880ee30032
:10469400e0013c0060662000882eb40050c0b300e6
:1046a400866eb400db01370040062000660ee3008e
:1046b400d8013600c0e02f00662eb40050c0b3000d
:1046c400766eb400d30137004048e2002e00320079
:1046d4001bc8bf0003003200e14f5000cd013a0077
:1046e4000500370020748000ef0f5000c9013e0020
:1046f400842eec00c70137002ec8bf00e14f5000e4
:104704001100320003003900e24f5000c1013a00a9
:104714001500370070de2f00740ee300bd013e006b
:10472400800c2000742eb400740ef800780ef9008a
:10473400c073800042062000110009000200d80066
:10474400c0738800b301370070ff27006e08e300d0
:10475400b0013c00606620006e28b40050002000c8
:104764002828b400ab01370070ff27008e0ee30049
:10477400a8013c00606620008e2eb400500020008a
:104784008a2eb400a30137003a48e200a1013200a6
:10479400b0032000920ee3009e013e00922eec0036
:1047a400f07380008000eb0039f007003af0070056
:1047b400748a2e0085e42200f61f2200970024004c
:1047c40002ef07006022b80006002700770d2400de
:1047d40050f00700a9f007000002be000203be006b
:1047e40074ef0700104088002140880032408800a0
:1047f40043408800907480008000eb0024f00700a0
:1048040025f007000002be000203be006000b800ed
:104814000200200003ff23003ef0070090418800bf
:10482400a1418800b2418800c34188001040800043
:104834002140800032408000434080009441800049
:10484400a5418000b6418000c7418000dfee07002b
:104854000002be000203be006000b8000200200097
:1048640003ff230005f00700d0428800e1428800de
:10487400f24288000343880090418000a1418000f7
:10488400b2418000c34180007ef0070000418800ef
:104894001141880022418800334188001040800083
:1048a4002140800032408000434080000441800069
:1048b400154180002641800037418000c3ee070087
:1048c400c0448800d1448800e2448800f34488004e
:1048d400c0448000d1448000e2448000f34480005e
:1048e400004588001145880022458800334588002a
:1048f400104080002140800032408000434080000e
:1049040014408000254080003640800047408000ed
:10491400d8428000e9428000fa4280000b438000c4
:10492400aaee07000802be000a03be00d3ef070088
:104934006022b8000600200007ff2300cfef070025
:10494400a0718800b1718800c2718800d371880099
:10495400d0428000e1428000f242800003438000a4
:10496400e0718800f1718800027288001372880077
:10497400c0448000d1448000e2448000f3448000bd
:104984006022b80006002000070c24008fee070008
:104994008eef070080458800b008f800b208f900df
:1049a400a0718000b1718000c2718000d371800059
:1049b4006022b80006002000070c240083ee0700e4
:1049c40082ef0700a0458800e0718000f17180004b
:1049d40002728000137280006022b800060020007a
:1049e400070c240079ee070078ef0700b045880033
:1049f400080137005448e200060132001148e20081
:104a040004013a0010c0b30011e8b7004848e200be
:104a14001400320073c8bf0003003200e14f50009d
:104a2400fc003a0007003700880ee200f900340069
:104a3400a0992f00882eb400b0cfb300866eb400c6
:104a4400f4003700307722006a0ee300f1003e00e4
:104a5400401f20006a2eb400b0cfb3006f6eb400c4
:104a6400ec0037004448e2001e00320068c8bf0072
:104a740003003200e14f5000e6003a001100370015
:104a84002ec8bf0003003200e14f5000e1003a009d
:104a94000500370070cebf00e14f5000dd00360046
:104aa400706eed00db003700880ee200d9003400a0
:104ab400a0992f00882eb400b0cfb300866eb40046
:104ac400d400370030772200660ee300d1003e00a8
:104ad400401f2000662eb400b0cfb300766eb40041
:104ae400cc003700804ee200ca003a004048e200a1
:104af4002e0032001bc8bf0003003200e14f5000fb
:104b0400c4003a000500370020748000e10f500013
:104b1400c0003600842eed00be0037002ec8bf0052
:104b2400e14f50001100320003003900e24f500001
:104b3400b8003a0015003700700c2000740ee30032
:104b4400b400360080f32f00742eb400740ef80005
:104b5400780ef900c073800042062000110009009d
:104b64000200d800c0738800aa0037009000280013
:104b74006e08e300a7003500a0992f006e28b4004a
:104b8400b0ff2f002828b400a20037006066200080
:104b94008e0ee3009f003400a0992f008e2eb400e7
:104ba400b0ff2f008a2eb4009a0037003a48e20082
:104bb4009800320090748000e10f50009500360098
:104bc400922eed00f07380008000eb0030ef0700c0
:104bd40031ef0700748a2e0085e42200f61f2200bc
:104be40097002400f9ed07006022b80006002700b2
:104bf400770d240047ef0700a0ef07000002be0076
:104c04000203be006bee07001040880021408800bc
:104c14003240880043408800907480008000eb009c
:104c24001bef07001cef07000002be000203be00da
:104c34006000b8000200200003ff230035ef0700e6
:104c440090418800a1418800b2418800c341880096
:104c540010408000214080003240800043408000aa
:104c640094418000a5418000b6418000c741800086
:104c7400d6ed07000002be000203be006000b800cb
:104c84000200200003ff2300fcee0700d04288004e
:104c9400e1428800f242880003438800904180008a
:104ca400a1418000b2418000c341800075ef07003c
:104cb4000041880011418800224188003341880066
:104cc400104080002140800032408000434080003a
:104cd4000441800015418000264180003741800056
:104ce400baed0700c0448800d1448800e24488003b
:104cf400f3448800c0448000d1448000e244800032
:104d0400f34480000045880011458800224588004e
:104d140033458800104080002140800032408000ec
:104d240043408000144080002540800036408000cd
:104d340047408000d8428000e9428000fa42800067
:104d44000b438000a1ed07000802be000a03be0069
:104d5400caee07006022b8000600200007ff230007
:104d6400c6ee0700a0718800b1718800c271880086
:104d7400d3718800d0428000e1428000f24280007a
:104d840003438000e0718800f1718800027288009a
:104d940013728800c0448000d1448000e244800043
:104da400f34480006022b80006002000070c2400b1
:104db40086ed070085ee070080458800b008f800fe
:104dc400b208f900a0718000b1718000c271800046
:104dd400d37180006022b80006002000070c240074
:104de4007aed070079ee0700a0458800e0718000a5
:104df400f171800002728000137280006022b8009a
:104e040006002000070c240070ed07006fee070079
:104e1400b04588004148e20002003a005448e200ec
:104e2400a10032001148e2009f00320041c1b300ea
:104e34000040eb002df9070010c0b30035f907005e
:104e44002ec8bf000080fb008000eb0012c0b3003e
:104e540057f907004848e2001d00320073c8bf003c
:104e640003003200e14f50008f003a000c0037007d
:104e740010c0b30027f9070001012000c0b82800c2
:104e840039f9070041c1b300a0c0b30017f9070006
:104e940086cebf000080fb0054f907008200370073
:104ea40010c0b3001bf9070001012000c0b828009e
:104eb4002df9070041c1b300a0c0b3000bf90700ee
:104ec4006fcebf000080fb0048f907007600370072
:104ed4004448e2002e00320068c8bf0003003200dc
:104ee400e14f500070003a001d0037002ec8bf008b
:104ef40003003200e14f50006b003a000c00370011
:104f040010c0b30003f907000101200050ba2800c3
:104f140015f9070041c1b300a0c0b300f3f80700be
:104f240070cebf000080fb0030f907005e00370040
:104f340010c0b300f7f8070001012000c0b8280032
:104f440009f9070041c1b300a0c0b300e7f80700a6
:104f540086cebf000080fb0024f907005200370012
:104f640010c0b300ebf8070001012000c0b828000e
:104f7400fdf8070041c1b300a0c0b300dbf807008f
:104f840076cebf000080fb0018f90700460037000a
:104f94004048e200380032001bc8bf000300320062
:104fa400e14f500040003a000b00370010c0b3003e
:104fb400d8f807000101200080bc2800eaf80700a7
:104fc40041c1b300a0c0b300c8f80700207480003a
:104fd40006f90700340037002ec8bf00e14f500027
:104fe4000f00320003003900e24f50002e003a0057
:104ff4001600370010c0b300c6f8070001012000f6
:1050040090bd2800d8f8070041c1b300a0c0b30088
:10501400b6f80700c0738000f4f8070022003700d8
:1050240010c0b300bbf807000101200080be2800b7
:10503400cdf8070041c1b300a0c0b300abf807002e
:1050440040418000e9f807001700370010c0b300a2
:10505400b0f8070001012000f0be2800c2f80700e4
:1050640041c1b300a0c0b300a0f807005074800091
:10507400def807000c0037003a48e2000a0032006c
:1050840010c0b300a3f807000101200060be28008f
:10509400b5f8070041c1b300a0c0b30093f80700fe
:1050a40090748000d1f807007248e2000b003a00c7
:1050b4000048e20009003a001048e20007003a0004
:1050c4001a48e20005003a001f48e20003003a00d3
:1050d4002c48e200010032002c68ef002d48e20069
:1050e40003003a005548e200010032005568ef0021
:1050f4004148e20005003a005448e20003003a0047
:105104001148e200010032001168ef004f05be00b3
:105114004f04be0000000600889fbe008a1f78006e
:10512400e8ff2f00e02d2000100864001117800014
:10513400888060000117880062f7070080447800c7
:1051440060f70700004578005ef70700e12d2000b6
:1051540091086400111780000100a0000117880065
:10516400cc4cdd000a85fb004455dd008904750044
:105174008080fb00c408de00098070004f057800c1
:105184004f04be0000000600889fbe008004780023
:10519400d8ff2f00e02d20001008640010178000b5
:1051a40008006000001788000040eb0044f7070087
:1051b4004848de0042f707000940780040f707003e
:1051c400e02d200010086400101780000010a000db
:1051d400001788004f04be00000006002200f800fb
:1051e4002400f8002600f8002800f8002a00f8003f
:1051f4002c00f800c8ff0700c04588000000280004
:10520400b808b40010428800b0408000000040009c
:10521400c18b20001242800082307800b0408000b0
:10522400d27380000000e800110009000280d80059
:10523400b14088004288d500207288004848e200c6
:1052440060003200e0738000720ee300060032005a
:105254007c0ef8002a08f900720ef8007c0ef900a2
:105264008c0ef8005e0ef9004400a9001201c30080
:1052740054418000e5738000f67280000400ca0087
:105284001241c1001201c40020018000d0458800f1
:105294004400a800f07280008c0eb400f072880004
:1052a40073c8bf0003003200e14f50006f013a00a1
:1052b400130037004400a9001201c3001281c30087
:1052c40014428000d54580001381c0000580cc00c5
:1052d4001281c3001201c300467480000400ca0096
:1052e4001241c1001201c400200180001042880054
:1052f4001281c3001201c3004400a8005b013700ff
:105304009073800052738000110009000280d8005d
:1053140040738800e0408000680ee300060032001d
:105324001c08f8002a08f900680ef8001c08f900a7
:105334008c0ef800600ef9004400a9001201c300ad
:105344001281c300b040800051418000d2738000bc
:1053540080804000110009008280d80081804000d4
:10536400c48b2000e4807800a1408800b140800014
:10537400e3408000d2738000818041001100090065
:105384008280d80081804000e480780071408800e9
:10539400a440800075408000067380000480ca0029
:1053a40012c1c1001281c400500180001042880063
:1053b4004400a800007380008c0eb40000738800c1
:1053c4002a0137004448e2009a00320068c8bf004e
:1053d40003003200e14f500024013a005e00370020
:1053e400504380001808e3000a0032005043800054
:1053f4001808e300020034006a28ec0007003700b4
:10540400504380001808e30004003d006a28ed00c2
:10541400020037001808f8006a08f9001e68ef0057
:105424001ec8bf00e34f500016003e001ec8bf0058
:105434008082fb00e1812000914078008180fb00a4
:1054440081804000828a2000e2817800b14080009f
:1054540054438000d2738000810042008380400066
:10546400110009008280d80005804200e3882000f2
:10547400813178001e68ec001ec8bf00e34f500065
:10548400eaff36007044800000004000c18b200019
:1054940061007800cf80de005040880061408800c1
:1054a40010c0b3001ee8b70070cebf001e48e30072
:1054b400130031001ec8bf000080fb000000400044
:1054c400e18820006100780000004000c18b2000ca
:1054d400610178005040800061408000cf91de007f
:1054e40000004100818049005040880061408800ec
:1054f4001e68ec0070cebf001e48e300edff3900cb
:10550400504080006140800002e720001241780092
:105514000281fb008001eb00aaed070050408800e7
:10552400614088005040800061408000b0448800a1
:105534001201c30014428000b54480004674800008
:105544000400ca001241c1001201c40020018000fd
:1055540010428800c50037009073800032738000c9
:10556400110009000280d800f04188008074800096
:105574003e08e30006003200900ef8002a08f90005
:105584003e08f800900ef9008c0ef800600ef90049
:105594004400a9001201c3001281c300b04080007e
:1055a40051418000d27380008080400011000900c6
:1055b4008280d80081804000c48b2000e480780081
:1055c400a1408800b140800083748000d2738000c1
:1055d40081804100110009008280d8008180400050
:1055e400e480780071408800a44080007540800009
:1055f400067380000400ca001241c1001201c400f5
:1056040020018000d04588004400a8000073800079
:105614008c0eb40000738800d04580004208b400aa
:1056240022002000110009000200d8001042880066
:105634008e0037004048e200520032001bc8bf0011
:1056440003003200e14f500088003a00190037008f
:105654006228ec00104380001208e3000a003e00b8
:105664006228ef00b1408000d27380008180e8009e
:10567400110009008280d80081804000c08b200086
:1056840060807800104288001142800020748000fd
:10569400700010000088de00104288001142800073
:1056a40020748000700010000008dd0010428800a3
:1056b4006e00370010428000cf80de0060728800e8
:1056c4007172880072438000607280007172800081
:1056d400cf91de00000041008180490060728800a3
:1056e40071728800a07380006272800073728000ff
