:020000040000fa
:04005400c4010000e3
:020000040000fa
:04001000c401000027
:020000040000fa
:04015400c4010000e2
:020000040000fa
:04011000c401000026
:020000040000fa
:04019400c4010000a2
:020000040000fa
:0401c000c401000076
:020000040000fa
:04016400c4010000d2
:020000040000fa
:0401cc00c40100006a
:020000040000fa
:0401d400c401000062
:020000040000fa
:0401d800c40100005e
:020000040000fa
:04012c00c40100000a
:020000040000fa
:04013800c4010000fe
:020000040000fa
:04019800c40100009e
:020000040000fa
:04019c00c40100009a
:020000040000fa
:0401a000c401000096
:020000040000fa
:0401a400c401000092
:020000040000fa
:04016c00c4010000ca
:020000040000fa
:04017000c4010000c6
:020000040000fa
:04012800c40100000e
:020000040000fa
:04016800c4010000ce
:020000040000fa
:04018400c4010000b2
:020000040000fa
:0401b800c40100007e
:020000040000fa
:0401bc00c40100007a
:020000040000fa
:0401d000c401000066
:020000040000fa
:04016000c4010000d6
:020000040000fa
:04011800c40100001e
:020000040000fa
:04015800c4010000de
:020000040000fa
:04013000c401000006
:020000040000fa
:04013c00c4010000fa
:020000040000fa
:04017400c4010000c2
:020000040000fa
:04017800c4010000be
:020000040000fa
:0401a800c40100008e
:020000040000fa
:0401ac00c40100008a
:020000040000fa
:0401b000c401000086
:020000040000fa
:0401b400c401000082
:020000040000fa
:04010c00c40100002a
:020000040000fa
:0401c400c401000072
:020000040000fa
:0401c800c40100006e
:020000040000fa
:04010800c40100002e
:020000040000fa
:04011c00c40100001a
:020000040000fa
:04012000c401000016
:020000040000fa
:04012400c401000012
:020000040000fa
:04015c00c4010000da
:020000040000fa
:04014800c4010000ee
:020000040000fa
:04019000c4010000a6
:020000040000fa
:04011400c401000022
:020000040000fa
:04013400c401000002
:020000040000fa
:04014000c4010000f6
:020000040000fa
:04014400c4010000f2
:020000040000fa
:04017c00c4010000ba
:020000040000fa
:04018000c4010000b6
:020000040000fa
:04014c00c4010000ea
:020000040000fa
:04015000c4010000e6
:020000040000fa
:04018800c4010000ae
:020000040000fa
:04018c00c4010000aa
:020000040000fa
:04009400c4010000a3
:020000040000fa
:0400c000c401000077
:020000040000fa
:04006400c4010000d3
:020000040000fa
:0400cc00c40100006b
:020000040000fa
:0400d400c401000063
:020000040000fa
:0400d800c40100005f
:020000040000fa
:04002c00c40100000b
:020000040000fa
:04003800c4010000ff
:020000040000fa
:04009800c40100009f
:020000040000fa
:04009c00c40100009b
:020000040000fa
:0400a000c401000097
:020000040000fa
:0400a400c401000093
:020000040000fa
:04006c00c4010000cb
:020000040000fa
:04007000c4010000c7
:020000040000fa
:04002800c40100000f
:020000040000fa
:04006800c4010000cf
:020000040000fa
:04008400c4010000b3
:020000040000fa
:0400b800c40100007f
:020000040000fa
:0400bc00c40100007b
:020000040000fa
:0400d000c401000067
:020000040000fa
:04006000c4010000d7
:020000040000fa
:04001800c40100001f
:020000040000fa
:04005800c4010000df
:020000040000fa
:04003000c401000007
:020000040000fa
:04003c00c4010000fb
:020000040000fa
:04007400c4010000c3
:020000040000fa
:04007800c4010000bf
:020000040000fa
:0400a800c40100008f
:020000040000fa
:0400ac00c40100008b
:020000040000fa
:0400b000c401000087
:020000040000fa
:0400b400c401000083
:020000040000fa
:04000c00c40100002b
:020000040000fa
:0400c400c401000073
:020000040000fa
:0400c800c40100006f
:020000040000fa
:04000800c40100002f
:020000040000fa
:04001c00c40100001b
:020000040000fa
:04002000c401000017
:020000040000fa
:04002400c401000013
:020000040000fa
:04005c00c4010000db
:020000040000fa
:04004800c4010000ef
:020000040000fa
:04009000c4010000a7
:020000040000fa
:04001400c401000023
:020000040000fa
:04007c00c4010000bb
:020000040000fa
:04008000c4010000b7
:020000040000fa
:04004c00c4010000eb
:020000040000fa
:04005000c4010000e7
:020000040000fa
:04008800c4010000af
:020000040000fa
:04008c00c4010000ab
:020000040000fa
:080000000001040000000000f3
:020000040000fa
:10020000ef8520000eff20000e0188000000000096
:10021000000020000000e000020032000001200089
:10022000200288000c000700407b21000100200014
:100230001f000700000020000000e0000200320064
:1002400000000200000000008c1602000000000008
:100250000040da000000fe004440a900800d2000ac
:100260000000e0000300320000002000a001880030
:100270004440a80000000600f03fb1000180b1003a
:1002800006003500ee03090000000000403fb10009
:100290000180b100fbff3d001000b000203fb00026
:1002a0000200350000800900000000000000060088
:1002b00091018800800078000000eb0015003700f5
:1002c000e280400032a0b4009101ba00e280400018
:1002d00032a0b4009102ba00e280400032a0b40023
:1002e0000002eb00472bde00f507b200602ce100b6
:1002f00004003a000059eb008301e900fdff3e00d5
:10030000040037006128e100010032000082eb00a8
:100310000b00070011c3ba001101ba000604e00087
:1003200003003a000200e000e5ff3a00000006008a
:10033000f607b2009601880082007800f5ff3700ca
:100340003159ba008301e9000c0032002159ba008a
:100350008301e900080032000400e00003003a00d5
:10036000e280400032a0b400f5ff370011d9ba0096
:100370008301e900faff3a008100e800e1804000d3
:1003800032a0b400000006000040da000000fe00c9
:100390006022b800060220000000d0008180d20058
:1003a0000482d2008582d2000000a0000202520026
:1003b00083825a00030031000202420083824a0015
:1003c0000000a1000603e900f3ff3a000000060068
:1003d0002800fa00889fbe008a9fbe008c9fbe0046
:1003e00003866b004c0107000028a30064003a005c
:1003f0000128a30067003a000008a30062003a0049
:100400000108a30065003a001e009000be0890009d
:1004100081064000ed3fb100f4805700ee019000ee
:10042000111ab8008e099000311bb8009e09900087
:10043000311cb800511db800f48557004600070074
:10044000fe0190003a0007008b85e8003e0007009f
:100450008e09900040000700ee0190003400070074
:100460008b85e800380007008e09900040000700e7
:100470009e0990001b18b800890440000a854800b6
:10048000fe019000340007008b85e800380007006b
:10049000ee019000300007008e0990001b18b80094
:1004a000890440000a8548000a98a30008003a0021
:1004b0000402420085824a0006034b0087834b00fa
:1004c00008044c0089844c000a054d008d06e900a3
:1004d00084827200850273004c3add00850272004e
:1004e0000100320015002000443ade001400b20082
:1004f0004538de00cb45dd000b007000c540de0056
:10050000cb4ddd008b8070004549de00cb55dd0012
:100510000b017100c551de000d03780017010700c3
:1005200003f0a1000cf0a70003f0a0000e013700bb
:100530001b18b8008502400006834800e0834b008a
:1005400060044c00070037001b18b8000603400089
:1005500087834800faff37001b18b8008703400064
:1005600008844800e0844c0060054d00000006004f
:100570001b18b8000804400089844800faff3700bf
:100580000108a300f5003a005800be005801be0063
:10059000e3ff37000008a300f0003a0009047800e8
:1005a000f9ff37008f1fd100200107008f87e90076
:1005b0000000e000000006002800fa00889fbe004e
:1005c0008a9fbe008c9fbe00070678008786690060
:1005d0000c003b00030478008704780008f0a100b9
:1005e00009f0a100840f5000858f5800860f590034
:1005f000890f5c00030033000cf0a20001003a00f8
:100600000cf0a100c40007006400e1005f003200ac
:10061000780147006408e100610032006c01470086
:10062000748557003200be001201be003a04be00bd
:100630001a05be001e039000be0a900085035300f9
:1006400006003d000004fd008104fd000205fd00e0
:100650008305fd008703ea00050378000df8a30079
:100660000400320060041400e0841c0060051d00da
:10067000e0851d006022b8007d0320000d38e100f8
:100680008006eb000b0039004433dd00f300b200bc
:100690008301730039003700848272000d027800f4
:1006a000e10664008b85d1000a85d3008984d300dc
:1006b0000884d3008703e900f7ff3b0008004000ef
:1006c000898048000a0149008b81490004003b00f1
:1006d00060001000e080180060011900e08119003e
:1006e0000358a300090032008d82720084827200d8
:1006f000610260008301d1000281d3008180d300b8
:100700000080d3000603e8001b0037000348a30065
:1007100017003a000600e000170034000603e90065
:100720000d00a3000000480081804800020149003c
:10073000838149000348a3000f003a000600e0004f
:10074000090034000603e9000000400081804800f1
:10075000020149008381490001003a000003eb00d7
:100760000348a300f5ff32006022b8000200370002
:1007700084827200618266008000070003f0a1009d
:100780000cf0a70003f0a0007700370064014700d9
:100790006408e10002003a000df8a3006f003a007f
:1007a0003200be001201be006f0037000002eb00f5
:1007b000c70007000500320007ff230006002000e5
:1007c0006022b80003f0a7002d000700000006001b
:1007d0001400fa00889fbe008a9fbe008c9fbe0056
:1007e0000004be000205be00680047000a90be007b
:1007f0000890be00fa0007000070a7000bf0a100ef
:10080000304320009e02900080825200b0fe2f00f4
:100810000028e10011003d00b0fc2f000028e1009d
:10082000150034001e0990008e0890007e00900094
:100830000501b0000201d1008180d3000080d30007
:100840008502e800fbff3a000b00e00046003b0099
:1008500060001000e080180043003700f0ff2f0018
:10086000f1ff27000b00e0003f003b0001002800e3
:10087000000020003c0037006000b8003a0037005c
:1008800007f0a2004cff37004f89de00820178009c
:10089000fa0037006011b8000801370081037800c2
:1008a000350107000001be006000b8000478a30015
:1008b00013003a006220e10015003e000d003900ef
:1008c0008301d1000281d3008180d3008301d10054
:1008d0000281d3008180d3008301d1000281d30043
:1008e0008180d3000538b000c42add00f300b200d7
:1008f0008381720007f0a70003f0a000000006004b
:10090000f3ff2700f2ff2f006110b900fbff370053
:1009100003ff2700f7ff3700680447000294be007a
:100920000094be00fc0447008694be008494be0080
:1009300009007800aa00070008007800a800070056
:1009400099007800814f70000b003b000800be004a
:100950001e0107004f00b10003003700f3ff27001e
:10096000f2ff2f006110b9004f06be004f05be0018
:100970004f04be000080fa000000060018002000ae
:1009800057002000080453000d003d000600200021
:1009900097fc2f000740e1001e00340084827200a3
:1009a000610260008301d1000281d3008180d30005
:1009b0000080d3000804e800f8ff3a004700200058
:1009c0006104600005047400040464000d0032003a
:1009d00061004000e080480060014900e08149007a
:1009e00003b8a500070032000603e8006538e100ff
:1009f00004003a008301d1000281d3008180d3003a
:100a00000080d300f87f20000830e10003003500ab
:100a1000080378006000b8006011b8004433dd00be
:100a2000f300b2008301730000000600889fbe003f
:100a30008a9fbe008c9fbe000404be000605be0057
:100a4000809fbe00829fbe00ee0007000406780073
:100a50000800be000a01be00ea0007008406780014
:100a60004f03be004f02be008d4f76007fb097004f
:100a700013003300f0ff2f008b8f6b0006003b004c
:100a80000d0666000c00a7000a00370007f0a6005c
:100a9000100020000a003700880f5200898f5a008a
:100aa0008a0f5b008b8f5b00030039001000200071
:100ab00001003e000000200007f0a7000000ea004f
:100ac0004f06be004f05be004f04be0000000600ea
:100ad0001400fa00889fbe008a9fbe008c9fbe0053
:100ae00004067800e80247008292be008092be00b1
:100af000050078003a0007006200e10033003a0088
:100b00006000b8006011b8001e0390000c03530091
:100b1000f63fb100220035004b0320000b30e1000e
:100b20002a003d00fb012000faff2f006154b900ac
:100b30006c0147008b05d1000a85d3008984d3005e
:100b40000884d3000603e900faff3b003200be0030
:100b50001201be000002640081826400020365008d
:100b600083836500050272000602720007027200ac
:100b7000160032000884ea008984ea000a85ea0047
:100b80008b85ea000000640081806400020165003a
:100b9000838165006022b8001e03900077ff070084
:100ba000de03900007f0a70003f0a0000082eb0036
:100bb0000400e0008e0290004f06be004f05be000c
:100bc0004f04be000080fa000000060064014700e8
:100bd000040020003200be001201be00f4ff370006
:100be000800078005002be005003be004439de0091
:100bf000f700b200f37f200003016100090032001a
:100c00000218e10016003a008501720083017300aa
:100c1000838173000008200015003a004000200086
:100c20001300370085017200830173008381730014
:100c300005003a0004a8be0006a8be00100020006f
:100c40000b0037000201e9000402420085824a00dd
:100c500006034b0087834b000748a300f9ff3200cf
:100c60000740a00004a8be0006a8be002000200087
:100c7000800098009200980000000600881f78000d
:100c8000030478000300e00007003d00600010004e
:100c9000e080180060011900e081190002003b00ab
:100ca00001f02d00030037006800070008f0a700de
:100cb00003f0a0004f04780000000600889fbe00eb
:100cc0008a9fbe00008270000402710004827100dd
:100cd000260032000004be000200be006011b80011
:100ce0006b092000950220000182cf000a00390024
:100cf0000541b1000082cf00070039000541b10075
:100d00000982cf00040039000541b1000882cf00fc
:100d1000010039000541b1000542520012003200c5
:100d20000a003b0082817100610164008100d100f2
:100d30000080d3008984d3000884d3008b05e800a9
:100d40000442e800f7ff3a000700370008044400b7
:100d500089844c0000004800818048008b05e90030
:100d60000442e900f9ff3a00630007004f05be00a6
:100d70004f04be0000000600c70ade00f107b20003
:100d8000f50fb20008003200e1cf4200020032004d
:100d90000170a00024000500810f700001003200e6
:100da0000408050044000500810f700002003a00ad
:100db000140005008502e9000000400081c04800e1
:100dc000fcff3b000170a00024000500e48240000d
:100dd0001078a30007003200640240001178a300dd
:100de0003400be001401be00040032000330a7002e
:100df000000006003500be001501be000330a00053
:100e00000000060005ff2700058261000700320090
:100e10000428e1000100320024000500060007005c
:100e200001003a0044000500040805000200070024
:100e3000f9ff3a00140005006f8261008102700022
:100e4000850271008502720000000600889fbe00c6
:100e500000827000040271000482710024003200dc
:100e600036432000c50020008383cf000a003900ec
:100e70000541b1008283cf00070039000541b10070
:100e80008183cf00040039000541b1008083cf0089
:100e9000010039000541b10085c353006022b8004c
:100ea000120032000a003b0084827200610260007e
:100eb0008301d1000281d3008180d3000080d30060
:100ec0000603e8008743e800f7ff3a000700370011
:100ed00000004000818048000201490083814900f0
:100ee0000603e9008743e900f9ff3a00a3fe070083
:100ef0004f04be0000000600810020006180550004
:100f00000b003d000b00200061fe2f000100e100fe
:100f10001d00340082817100610164008904d100e8
:100f20000884d3000000e800faff3a0071002000b6
:100f300061006400030070000200600009003200dc
:100f400061044400e0844c000988a50005003200db
:100f50008b05e8006808e10002003a008904d1002e
:100f60000884d300f20f20000258e10005003d0084
:100f7000c75ddd00f907b2008980750008007800c0
:100f8000000006000bf827008b0078000000050029
:020000040000fa
:0200000401f009
:04000000178700005e
:020000040000fa
:0200000401f009
:040004003f000000b9
:020000040000fa
:0200000401f009
:04000800b3870000ba
:020000040000fa
:0200000401f009
:04001400ffff0000ea
:020000040000fa
:0200000401f009
:0400180003c0000021
:020000040000fa
:040034004e17000063
:020000040000fa
:040040007017000035
:020000040000fa
:04004400921700000f
:020000040000fa
:100f9000005600006f6c000074610000676500007f
:100fa0002041000044430000000000000000000059
:100fb0000a0800000b100000fc170000d51f0000fd
:100fc0008e2700001f2f000080360000aa3d000081
:100fd000964400003d4b0000975100009f570000d1
:100fe0004f5d0000a06200008e670000136c0000df
:100ff0002b700000d173000003770000bc79000063
:10100000fb7b0000bc7d0000fe7e0000bf7f000077
:10101000ff7f0000bf7f0000fe7e0000bc7d00005f
:10102000fb7b0000bc79000003770000d173000057
:101030002b700000136c00008e670000a06200009f
:101040004f5d00009f570000975100003d4b00008e
:1010500096440000aa3d0000803600001f2f0000cb
:101060008e270000d51f0000fc1700000b100000a9
:101070000a08000000000000f6f70000f5ef00008d
:1010800004e800002be0000072d80000e1d000006e
:1010900080c9000056c200006abb0000c3b4000053
:1010a00069ae000061a80000b1a20000609d0000d0
:1010b00072980000ed930000d58f00002f8c000087
:1010c000fd88000044860000058400004482000082
:1010d000028100004180000000800000418000008b
:1010e0000281000044820000058400004486000064
:1010f000fd8800002f8c0000d58f0000ed930000cc
:1011000072980000609d0000b1a2000061a800007c
:1011100069ae0000c3b400006abb000056c2000004
:1011200080c90000e1d0000072d800002be0000070
:1011300004e80000f5ef0000f6f7000000000000f2
:020000040000fa
:101140000001eb000100e000080032001004e000a4
:1011500003003a00050037005004e00003003200ad
:101160000201e800828f5000fbff3e000200780081
:1011700000000600e8874700889fbe008a9fbe00e7
:101180008c9fbe008e1f7800e2b79f008306780018
:101190000046eb000d00e00043003200e00f50007d
:1011a000e08f580009003d00d2c2b300efb19700b4
:1011b0008249780060011000e0811800f2b79f00ba
:1011c00083bf9f001c00200003003700f0b79f0082
:1011d00081bf9f000006eb001800200009002000de
:1011e0001ec0b3007fb097008fb89700e00f50008b
:1011f000e08f58000300320008a02c00a9b923009a
:101200000047eb008d0f560027003100e00f54001f
:10121000e08f5c002b0032007fb597008fbd9700f8
:10122000880f5500898f5d00020031000e04e00038
:10123000120032000801be000a00be0054fc070084
:1012400003c3b300834040006fb1970001717e007b
:101250000c06e8000080fb008000eb0000c9b9002c
:101260000800b800810041000001550081815d0047
:10127000f2b79f0083bf9f001ec0b3008d0f5600c2
:1012800009003100a2002000030020000800be0079
:101290003ffc07000004be00e00f5000e08f580044
:1012a000ddff3a00070037000c4078004f07780058
:1012b0004f06be004f05be004f04be008f00b100b8
:1012c000000006000040eb00efb1970080717e0047
:1012d000f5ff3700e4874700889fbe008a9fbe0065
:1012e0008c9fbe008e1f780082bf9f00030778008e
:1012f0000046eb000e00e0002c0032001800200039
:10130000090020006055b8001dc0b300e00f500078
:10131000e08f5800040032000005be0008a02c0039
:10132000a9b923008046eb000006eb00880f5500aa
:10133000898f5d00020031000d04e00010003200d2
:101340000801be000a00be0011fc070002c3b30082
:10135000824040000fb9970001717e000c06e80042
:101360000080fb008000eb0000c9b9000800b80055
:10137000810041000005550081855d001dc0b3005e
:101380008e0f560009003100a2002000030020004b
:101390000800be00fefb07000004be00e00f500086
:1013a000e08f5800e1ff3a00070037000c4078005a
:1013b0004f0778004f06be004f05be004f04be0029
:1013c0004f00b100000006000040eb008fb897000e
:1013d00080707e00f5ff3700e8874700889fbe00d9
:1013e0008a9fbe008c9fbe008e1f7800e2b79f00d0
:1013f000830678000d00e00043003200e00f50004b
:10140000e08f580009003d00d2c2b300efb1970051
:101410008249780060011000e0811800f2b79f0057
:1014200083bf9f001c00200003003700f0b79f001f
:1014300081bf9f000006eb0018002000090020007b
:101440001ec0b3007fb097008fb89700e00f500028
:10145000e08f58000300320008a02c00a9b9230037
:101460000047eb008d0f560027003100e00f5400bd
:10147000e08f5c002b0032007fb597008fbd970096
:10148000880f5500898f5d00020031000e04e000d6
:10149000120032000801be000a00be00bcfb0700bb
:1014a00003c3b300834040006fb1970001717e0019
:1014b0000c06e8000080fb008000eb0000c9b900ca
:1014c0000800b800810041000001550081815d00e5
:1014d000f2b79f0083bf9f001ec0b3008d0f560060
:1014e00009003100a2002000030020000800be0017
:1014f000a7fb07000004be00e00f5000e08f58007b
:10150000ddff3a00070037006fb097004f07780003
:101510004f06be004f05be004f04be008f00b10055
:10152000000006000040eb00efb1970080717e00e4
:10153000f5ff3700889fbe00840f5100090032007c
:101540000100e000620032000500e0007c00320093
:10155000904378000003eb000704e00050003a00dd
:101560005c0037000003eb000100e00009003200de
:101570001004e0000700320080037800020037000a
:101580005704e000030032000603e800868f500095
:10159000fbff3e00868f520009003e000100e00084
:1015a000620032000500e000650032001041780062
:1015b0000003eb000204e0002d003a005c0037005d
:1015c0008003eb000300e000160032001204e0008c
:1015d0001400320002047800020037005804e000d2
:1015e000030032008703e800878f5100fbff3e00b5
:1015f00086815200838f53000100360083037800f8
:101600000700e00007003200870441000683430022
:1016100006044100870178008301e90049647800ed
:10162000fdff3a008001eb000100e0000e003200f7
:101630000500e0000c003200104478000804e000cf
:1016400009003200085978008301e800838f5000b8
:1016500005003600838f52000300360050447800a6
:101660000804e000f7ff3a0007834100300037002c
:10167000840178000003eb00825978000603e8003b
:10168000868f50002a003600868f52002c003600cc
:10169000504178000204e000f7ff3a0026003700ce
:1016a000040478000003eb00075c78000603e80000
:1016b000868f500007003600868f520020003600cb
:1016c000d04378000704e000f7ff3a00030037003a
:1016d0000003eb00868f520019003600860342009b
:1016e0000000eb000300e0000e0032000684520010
:1016f0000c003200924078000104e0000900320042
:10170000815b78000000e800808f51000500360002
:10171000800f540003003600d24078000104e0003e
:10172000f7ff3a0006034000010037000003eb001a
:10173000850f5300020031000040eb0000727b0077
:101740004f04be00000006000100e000110032005e
:101750000300e00016003200904278000504e0002b
:101760000e003200020378000002eb00055b7800f7
:101770000402e800848f500009003600848f510075
:101780000b003600d04278000504e000f7ff3a0075
:10179000050037000002eb00010037000002eb00fb
:1017a000848f5100020036000040eb0000717a0087
:1017b00000000600f8874700889fbe008a9fbe0091
:1017c0008c9fbe008e1f78000004be000205be0084
:1017d000d8b79f00e9b79f00fab79f008bbf9f0063
:1017e00084467800c5b79f00060778000d04e00026
:1017f000110032006044b8000a0020000bfe2300f4
:101800000046eb000800be000a01be00a4992900b2
:10181000959929009699290097fb2300ecfa070077
:101820000c46e8008ccf5600f8ff3e000004be00d6
:101830000205be00030037006044b8000a00200023
:101840000bfe23006022b8006033b8005fb0970041
:10185000efb097007fb197008fb9970051fb070059
:101860000006eb000000e0000d003d005fb09700b7
:10187000efb097007fb197008fb9970003f0a200f7
:10188000d0b79f00e1b79f00f2b79f0083bf9f00d2
:10189000d0c2b300cfb09700804878001c00200071
:1018a0000802be000a03be005fb09700efb09700c9
:1018b0007fb197008fb997003ffb07000004be007f
:1018c0000205be00b9fb07000002be000203be0015
:1018d000d4b79f00e5b79f00f6b79f0087bf9f0072
:1018e000bbfb0700c3002000c2fd2f000f01410019
:1018f000b9fe0700cfd897000104e0000d003200c8
:101900000040eb004fb197008c0f570002003600eb
:1019100001717e000c06e8000040e8008080fb00ba
:10192000c5fd2f008f824200e5c078000104e00071
:10193000f5ff3a008c0f570004003600e0c2b300f8
:101940004fb3970000737e000c06e8000d04e00022
:101950002a0032008e0f56002e0031005fb2970031
:10196000efb297007fb397008fbb97000800be00cf
:101970000a01be00c2fb0700cfb397008c8543006d
:101980000c057800020037008a0f5700210036004e
:101990006022b80006002000470224008cfa0700ed
:1019a0000002be000203be00d4b79f00e5b79f004f
:1019b000f6b79f0087bf9f0085fb07000004be00ad
:1019c000b1fb07000002be000203be005fb097003b
:1019d000efb097007fb197008fb99700a8fb070081
:1019e00005c3b300855d44000a05e8000c425500bc
:1019f0008d4f5200e4ff3900010037000c057800dc
:101a00008a0f5700030036000040eb004fb39700e9
:101a100000737d004fb097004f0778004f06be005f
:101a20004f05be004f04be008f01b100000006004c
:101a3000010161008180ea0090806000010871006e
:101a4000000006000282ea00910862000281610043
:101a5000100262000408710000000600908060001f
:101a60000281fb000208de00000006009108710000
:101a7000100161000380fb000010de000000060082
:101a8000889fbe00804478000904e000080032000e
:101a90000044eb000060fe008032270001002000bf
:101aa000f5f907000844e80088cf5400f9ff3e002c
:101ab0004f04be0000000600889fbe008a1f780009
:101ac000004578008044eb000a04e0000a003a0078
:101ad0000b00370010c0b300e9ff07000804e8005e
:101ae000703e2000800f5400faff3a008944e8005d
:101af000894f5500020036000004eb00f5ff370067
:101b00004f0578004f04be0000000600881f7800d3
:101b100000047800f00f2000800f5400070036000a
:101b200030ce210001002000d3f90700f80fb100ea
:101b3000f00f2000800f5400f9ff3e000800e00085
:101b4000030032000880fb007d00b800caf90700de
:101b50004f04780000000600881f78000004780019
:101b6000f00f2000800f540007003600804d2b003e
:101b700021072000c0f90700f80fb100f00f200086
:101b8000800f5400f9ff3e000800e000040032001e
:101b90000884fb00803227000040b800b6f9070037
:101ba0004f04780000000600881f780000047800c9
:101bb000f00f2000800f54000600360000c0eb003c
:101bc000afff0700f80fb100f00f2000800f5400a6
:101bd000faff3e000800e0000200320008407800f2
:101be000a7ff07004f04780000000600881f780058
:101bf00000047800f00f2000800f5400070036002a
:101c000000bc260021012c009bf90700f80fb10051
:101c1000f00f2000800f5400f9ff3e000800e000a4
:101c2000080032000880fb008000eb00121c20003e
:101c30000281b90004442d000400b8008100410075
:101c40008df907004f04780000000600881f780017
:101c500000047800f00f2000800f540006003600ca
:101c600000c0eb0094ff0700f80fb100f00f200058
:101c7000800f5400faff3e000800e000020032002e
:101c8000084078008cff07004f0478000000060031
:101c9000642c200064428800144378008682fb0094
:101ca000454288000080fb0015002000802add00ee
:101cb000054a7300a022ef00a222ef00a422ef0049
:101cc000a622ef008582ea008002fd00a822b6006d
:101cd0008002fd006f006000301588000204e00003
:101ce00003003a00f0ff2100a222b60001003700f5
:101cf000a3a2a800a422ef000168a3000200320002
:101d0000a4e2a80002003700f103b2002115880008
:101d1000a1e2a800a022a8000380fb007d00b8007b
:101d200055f90700a022a90000000600881f7800ce
:101d3000a002ab00feff32000004e000020032000f
:101d40000814800002003700081480004444de00bc
:101d5000a022a800d00120000100200046f90700c1
:101d6000a022a900080078004f04780000000600b7
:101d70006042800081842000914078000148780012
:101d8000a1e2a900a8a2ef0000000600de62a900ff
:101d9000e262a800de42a800f0fb2f00de22b600bf
:101da000e222b600b00120001011880022a2a80093
:101db00022c2a9002302a9002322a90020c2a9004f
:101dc00021e2a8000000060021e2a900de62a800ce
:101dd000de42a800dec2a80000000600211180003b
:101de0000080fb00201188002002ab00feff3200c3
:101df00020118000000006005ce8b7000004e0004d
:101e000003003a00b0c1b3005ce8b70048003700f7
:101e1000e14f500003003a00e0c1b3005ce8b700b6
:101e200043003700e24f500003003a00b0c0b30057
:101e30005ce8b7003e003700e34f500002003a0074
:101e40005ce8b7003a003700e44f500003003a0066
:101e500060c1b3005ce8b70035003700e54f5000c3
:101e600003003a00d0c1b3005ce8b700300037008f
:101e7000e64f500003003a00e0c0b3005ce8b70052
:101e80002b003700e74f500003003a00a0c0b3001a
:101e90005ce8b70026003700e84f500003003a0026
:101ea00060c0b3005ce8b70021003700e94f500084
:101eb00003003a0090c1b3005ce8b7001c00370093
:101ec000ea4f500003003a0050c1b3005ce8b7008d
:101ed00017003700eb4f500003003a00c0c1b300b9
:101ee0005ce8b70012003700ec4f500003003a00e6
:101ef00080c1b3005ce8b7000d003700ed4f500023
:101f000003003a0040c1b3005ce8b70008003700a6
:101f1000ee4f500003003a0000c1b3005ce8b70088
:101f200003003700ef4f500001003a005c68ef00fb
:101f300021e2a90000fe2f002222b6005cc8bf00eb
:101f40007f0060002222b70021e2a8000000060006
:101f5000000006000000060000000600000005006a
:101f600000000600889fbe008a1f780000057800e8
:101f70000a00780072fc0700804478000904e00041
:101f8000060032000a0478003840780093ff07000a
:101f90000a40540080cf5400fbff3e004f057800fc
:101fa0004f04be00000006000200fa00889fbe0039
:101fb0008a1f7800800478000105780002447800c8
:101fc00083ff9f008a01780009017800110020003a
:101fd000807c2800dcfd07000804e0000c003200d3
:101fe00050c5b3007dff070080ff9f004501200022
:101ff0000902780013002000688157008a007800e9
:10200000090078004bfd07000844e900f4ff3a009e
:102010004f0578004f04be000080fa000000060063
:102020006eff370050c5b3006cff370066ff370006
:1020300056ff3700889fbe008a1f780080447800d2
:1020400001457800e2ff2f00202d200010086100dc
:10205000b016800002006000a0168800d1ff2f009b
:10206000202d200010886000b01680000100600064
:10207000a0168800b1ff2f00202d200010886000de
:10208000b016800001006000a016880071ff2f00cc
:10209000202d200010886000b01680000100600034
:1020a000a0168800f1ef2f00202d2000108860007e
:1020b000b016800001006000a0168800f1df2f003c
:1020c000202d200010886000b01680000100600004
:1020d000a01688008980fb00c408de00202d2000a7
:1020e000100861000108a30005003200b01680004e
:1020f0000000a000a0168800a01680000500370090
:10210000e2ff2f00b016800002006000a0168800d9
:10211000a01680000180fb000000d100d222a9009f
:102120000008a30005003200b11680000110a000d5
:10213000a1168800a116800005003700d1ff2f00ee
:10214000b216800001016100a2168800a11680006d
:102150000080fb000000d100d242a9000008a300cb
:1021600005003200b11680000120a000a1168800f1
:10217000a116800005003700b1ff2f00b2168000c5
:1021800001016100a2168800a1168000d262a90098
:102190000018a30005003200b01680000030a00037
:1021a000a0168800a01680000500370071ff2f00e0
:1021b000b016800001006000a0168800a016800004
:1021c0000a04e00004003200d302a900b016800027
:1021d0000080a000a016880040b52000010020006b
:1021e00025f80700f8df2f00222d200012096400d7
:1021f000b01680000090a000a016880040b5200016
:10220000010020001cf80700202d200010086400a9
:10221000b216800008016100a216880040b52000b7
:102220000100200014f80700e2ff2f00202d2000fd
:1022300010086100b016800002006000a01688003f
:10224000d1ff2f00202d200010886000b0168000e4
:1022500001006000a0168800b1ff2f00202d200093
:1022600010886000b016800001006000a016880091
:1022700071ff2f00202d200010886000b016800014
:1022800001006000a0168800f1ef2f00202d200033
:1022900010886000b016800001006000a016880061
:1022a000efc46400202d2000100861000908a3007d
:1022b00005003200b01680000000a000a0168800c3
:1022c000a016800005003700e1ff2f00b216800045
:1022d00001016100a2168800a01680008984fb001d
:1022e0000900d100d222a9000008a3000500320095
:1022f000b11680000110a000a1168800a116800070
:1023000005003700d1ff2f00b216800001016100e7
:10231000a2168800a11680000080fb000000d100fa
:10232000d242a9000008a30005003200b1168000c7
:102330000120a000a1168800a1168000050037002a
:10234000b1ff2f00b216800001016100a2168800c3
:10235000a1168000d262a9000018a3000500320077
:10236000b01680000030a000a0168800a0168000e3
:102370000500370071ff2f00b016800001006000db
:10238000a0168800a01680000a04e00004003200b5
:10239000d302a900b01680000080a000a01688001b
:1023a00040b5200001002000b3f70700f8df2f0040
:1023b000222d200012096400b01680000090a000b9
:1023c000a016880040b5200001002000aaf70700f1
:1023d000202d200010086400b21680000801610062
:1023e000a216880040b5200001002000a2f70700d7
:1023f0004f0578004f04be0000000600889fbe0015
:1024000000447800c9c1b3000104e00001003a00b3
:1024100089c1b3000804e000050032008040eb00f1
:102420000940780003ff07000844e900fbff3a0079
:102430004f04be00000006008040eb00fdfe0700d8
:1024400000652e00010020008bf7370002ccb3009e
:102450000104e00001003a0002c8b300004041005e
:102460008040eb00f3fe070000652e000100200015
:1024700081f73700889fbe0080447800e1cf540088
:102480000d003e00894078000040eb00efff0700a0
:102490000044eb0011c0b30000c2b300e5fe07002a
:1024a0000844e800f04f5400faff3a0089407800f1
:1024b0000040eb00e5ff07004f04be0000000600ef
:1024c00011c0b300dbfe3700889fbe008a1f780072
:1024d000000578000a00780019fb070080447800a6
:1024e0000904e000070032000a0478003840780050
:1024f00011c0b300cffe07000a40540080cf540043
:10250000faff3e004f0578004f04be0000000600b1
:102510001000fa000204e00004003200f300200082
:10252000708157006bfb070003003700f3002000a9
:10253000708157000ffb0700f100200070805700ea
:10254000e1ff07000080fa00000006000a00fa0020
:10255000cf80de00a30020006a8157009efb0700a9
:10256000a10020006a805700d7ff07000080fa0012
:10257000000006008040eb0010c0b300adfe070075
:1025800000652e00010020003bf707008040eb00b3
:1025900020c0b300a7fe070000652e000100200048
:1025a00035f737008f87e800889fbe008a9fbe00fe
:1025b0008c9fbe008e1f7800014478008244780012
:1025c0000345780084457800054678008646780003
:1025d00007477800310020000100dd000044b00012
:1025e0008040eb0093fe070000652e0001002000f4
:1025f00021f7070011c0b300084078008dfe0700e6
:1026000011c0b300094078008afe070011c0b30072
:102610000a40780087fe070011c0b3000b40780025
:1026200084fe070011c0b3000c40780081fe070053
:1026300011c0b3000d4078007efe070011c0b3004a
:102640000e4078007bfe070011c0b3002fe8970012
:1026500078fe0700c7ff07004f0778004f06be004f
:102660004f05be004f04be002f00b1000000060061
:1026700000000600e1ff2f00202d200010886000e0
:10268000b016800001006000a0168800d1ff2f0066
:10269000202d200010886000b0168000010060002e
:1026a000a0168800b1ff2f00202d200010886000a8
:1026b000b016800001006000a016880071ff2f0096
:1026c000202d200010886000b016800001006000fe
:1026d000a0168800f1ef2f00202d20001088600048
:1026e000b016800001006000a0168800f1df2f0006
:1026f000202d200010886000b016800001006000ce
:10270000a0168800005e260051002000daf60700bf
:102710008040eb0030c3b30046fe070000652e008a
:1027200001002000d4f607008040eb0030c3b30066
:1027300040fe070000652e0001002000cef60700d5
:102740008040eb0020c3b3003afe070000652e0076
:1027500001002000c8f607008040eb00c0c2b300b3
:1027600034fe070000652e0001002000c2f60700bd
:102770008040eb0060c0b3002efe070000652e0015
:1027800001002000bcf607008040eb00c0c0b30091
:1027900028fe070000652e0001002000b6f60700a5
:1027a0008040eb0010c0b30022fe070000652e0041
:1027b00001002000b0f607008040eb0020c0b3000d
:1027c0001cfe070000652e0001002000aaf607008d
:1027d00068ff370010c0b30054fd3700889fbe006b
:1027e0008a9fbe0000457800814578000b04e00018
:1027f00006003a008044eb000004eb000a04e0000d
:1028000012003a0009417800170037000041eb0040
:102810000004eb000a04e000130032008244780058
:102820000040eb0041fd0700000444008944e8003b
:102830000b80fb007d00b8008ff60700894f550024
:10284000f7ff3e000a417800070037000040eb0028
:1028500036fd0700000444008944e800894f550014
:10286000faff3e000a4178000281fb0011000900d6
:102870000284d8004f05be004f04be0000000600d1
:10288000889fbe00804478000144780083c2b30072
:102890000041eb0031c0b30090c0b300fcfc070066
:1028a0008840780009407800ccff07000044780099
:1028b0002ffd0700084078004f04be00000006000e
:1028c000889fbe008a9fbe008c1f780080457800dc
:1028d000014678000c04e00006003a000045eb00d9
:1028e0006044b8000b04e00013003a000a4178008d
:1028f000190037000041eb006044b8000b04e00011
:10290000150032000245780010c0b30007fd070033
:1029100008044000e0844c000a45e8000c80fb00fd
:102920007d00b80054f607008acf5500f6ff3e0040
:102930000b4178000800370010c0b300fbfc070013
:1029400008044000e0844c000a45e8008acf5500a6
:10295000f9ff3e000b4178000281fb008001eb0093
:102960000800be008af607004f0678004f05be003b
:102970004f04be0000000600889fbe00804478001f
:102980000144780083c2b3000041eb0031c0b300c2
:1029900090c0b300befc0700884078000940780072
:1029a000c7ff070000047800f1fc0700080078006a
:1029b0004f04be0000000600881f780083c2b300e9
:1029c0000041eb0031c0b30090c0b300b0fc070081
:1029d00010c0b300d5fc070000047800e4fc070039
:1029e0006140b800abf70700acf7070014d82e0021
:1029f00005462c00e613200047f5230074f6070077
:102a00004f04780000000600889fbe008004780014
:102a100001047800e8ff07000803780089027800c5
:102a200064c0b30063fb07004f04be000000060053
:102a300083c2b3000041eb0031c0b30090c0b300cb
:102a400093fc37000040eb00b8fc3700881f78008b
:102a500083c2b3000041eb0031c0b30090c0b300ab
:102a60008bfc070010c0b300b0fc07000004780026
:102a7000bffc0700080078004f0478000000060043
:102a8000bbfc3700881f780083c2b3000041eb0015
:102a900031c0b30090c0b3007dfc07000040eb00e4
:102aa000a2fc070000047800b1fc07000840780091
:102ab0004f04780000000600d4ff2f00602c200097
:102ac00010086200511680000110a0004116880015
:102ad0002181200091407800834280009242800052
:102ae0008180fb0083804000110009008280d800b3
:102af0000140780012e8b700218120009140780061
:102b00008180fb0081804000627d28006281780026
:102b1000cf91de00b2428800c3428800622c2000c0
:102b20001209620050168000040060004016880000
:102b300000000600c642a900501680000020a00038
:102b40004016880023ff07001040880010408000d6
:102b50004900de00104088000228ec00a0428000fe
:102b60000208e300090032000208f8005408f900e6
:102b700041c1b3000040eb0034fe070010c0b300b9
:102b80003cfe0700a042800070fe0700b1ff2f004e
:102b9000602c20001088600050168000010060004a
:102ba0004016880000000600889fbe008a1f78003b
:102bb000e8ff2f00e02d20001008640011178000ae
:102bc000888060000117880016fd070080447800a7
:102bd00014fd07000045780012fd0700e12d2000dc
:102be00091086400111780000100a00001178800ff
:102bf000cc4cdd000a85fb004455dd0089047500de
:102c00008080fb00c408de00098070004f0578005a
:102c10004f04be0000000600889fbe0080047800bc
:102c2000d8ff2f00e02d200010086400101780004e
:102c300008006000001788000040eb00f8fc070067
:102c40004848de00f6fc070009407800f4fc070065
:102c5000e02d200010086400101780000010a00074
:102c6000001788004f04be0000000600881f78008f
:102c70002200f8002400f8002600f800e8ff2f00ea
:102c8000602c200010086400501680000000a00096
:102c900040168800c4ff070060418800010028003a
:102ca000010078002c08b40000017800724188000f
:102cb0004400a90074418000b5428000d6428000e3
:102cc0001381c4000780cc001301c20020018000e2
:102cd000704188004400a800010078002e08b4006c
:102ce000800078004140880040408000caff070013
:102cf000602c20001008640050168000080060005e
:102d0000401688002600f9002400f9002200f9008e
:102d10004f04780000000600a8a2ef0044ff07005f
:102d2000c3fc070053fe0700c1002000907c280070
:102d3000e5fd07001268ef0081e0a8009580a8007b
:102d400095a0a80095c0a8009700a8009720a8000b
:102d50009740a9009780a80097a0a90097c0a90054
:102d600081e0a900d2ff2700210880000100610056
:102d7000010028000080700020088800f0f02f007b
:102d80000421b60053262000130888008c60a80098
:102d900084088000840161008381700083088800ba
:102da00084088000840160000350a000830888002c
:102db00073ce2100630888008cc0a80093088000af
:102dc0000301610002817000920888001201b600c0
:102dd0000003b30090088800f0702200700888009b
:102de0008ce0a80073c0b30002082000612c200012
:102df000802c20001dfb070000f0a7000000ea0067
:102e00000000ea004f00de002ae8b70063c0b3000c
:102e100002042000612c2000802c200013fb0700fe
:102e200000f0a7000000ea000000ea004f00de000a
:102e30000ae8b7002a48e2000b003200a0f9270098
:102e40005a08e300e7ff3c00400620005a28b4007f
:102e500041c1b3000040eb007cfd0700d042800080
:102e6000bafd0700dfff37000a48e200ddff32004d
:102e7000400620005a08e300daff3400c0f92f00b2
:102e80005a28b40041c1b3000040eb006ffd0700b9
:102e9000d0428000adfd0700d2ff37003600f800b9
:102ea000809fbe00829fbe00849fbe00869fbe00a2
:102eb0003400f80000002000a00188008460a90010
:102ec0006aff07003400f9004f03be004f02be0046
:102ed0004f01be004f00be003600f9000040060062
:102ee0003600f800809fbe00829fbe00849fbe0017
:102ef000869fbe003400f80000002000a00188007a
:102f000084c0a900ecfe07003400f9004f03be00a6
:102f10004f02be004f01be004f00be003600f90058
:102f2000004006003600f800809fbe00829fbe0071
:102f3000849fbe00869fbe003400f8000000200081
:102f4000a001880084e0a900fafe07003400f9001f
:102f50004f03be004f02be004f01be004f00be0037
:082f60003600f90000400600f4
:020000040000fa
:102f6800000800004e000000000000004e080000ad
:102f780010000000020000000100010000650000d0
:102f8800010001000000000001000c00000000002a
:042f98000000000035
:00000001FF
